:100000000C9492010C94810E0C945A0E0C94BA012B
:100010000C94BA010C94BA010C94CA0F0C94BA0156
:100020000C94BA010C94BA010C94BA010C94BA0164
:100030000C94BA010C94BA010C94BA010C94BA0154
:100040000C94DB0F0C94BA010C94CE0E0C94A80EF9
:100050000C94BA010C94BA010C94BA010C94BA0134
:100060000C94BA010C94BA01010402000302048A40
:10007000050506C30B2019421E2C25802E902FAAA1
:10008000302D370038003C8F3D106F2000000000FD
:1000900000240027002A0000000000250028002B73
:1000A0000000000008000201000003040700000037
:1000B0000000000000005EBCE2613FDD83C29C7E68
:1000C00020A3FD1F419DC3217FFCA2401E5F01E3D1
:1000D000BD3E6082DC237D9FC1421CFEA0E1BF5D6E
:1000E0000380DE3C62BEE0025CDF81633D7C22C0B7
:1000F0009E1D43A1FF4618FAA427799BC584DA38D0
:1001000066E5BB5907DB856739BAE406581947A588
:10011000FB7826C49A653BD987045AB8E6A7F91B31
:1001200045C6987A24F8A6441A99C7257B3A64866E
:10013000D85B05E7B98CD2306EEDB3510F4E10F29B
:10014000AC2F7193CD114FADF3702ECC92D38D6F38
:1001500031B2EC0E50AFF1134DCE90722C6D33D105
:100160008F0C52B0EE326C8ED0530DEFB1F0AE4C1E
:100170001291CF2D73CA947628ABF517490856B45F
:10018000EA6937D58B5709EBB536688AD495CB2900
:1001900077F4AA4816E9B7550B88D6346A2B7597B9
:1001A000C94A14F6A8742AC896154BA9F7B6E80AE6
:1001B00054D7896B350A417661696C61626C652040
:1001C000636F6D6D616E64733A0A20203C6E6E3E03
:1001D0006920202020202D20736574206E6F6465B7
:1001E0002049447320287374616E64617264206EC8
:1001F0006F6465206964732061726520312E2E332F
:1002000030290A20203C6E3E622020202020202D14
:1002100020736574204D487A2062616E6420283412
:10022000203D203433332C2038203D203836382CE4
:100230002039203D20393135290A20203C6E6E6E50
:100240003E67202020202D20736574206E65747712
:100250006F726B2067726F7570202852464D313275
:10026000206F6E6C7920616C6C6F77732032313245
:100270002C2030203D20616E79290A202073202017
:1002800020202020202020202D20736176652063EF
:100290006F6E66696720746F20454550524F4D0A56
:1002A000202076202020202020202020202D2053B8
:1002B000686F77206669726D776172652076657206
:1002C00073696F6E0A0000000000230026002900F9
:1002D00004040404040404040202020202020303EC
:1002E00003030303010204081020408001020408F4
:1002F0001020010204081020200020555341200046
:10030000204D487A0020402000206700206900200E
:10031000005D005B656D6F6E54782046573A20563D
:100320000000331A11241FBECFEFD8E0DEBFCDBFCF
:1003300014E0A0E0B1E0E8E9F0E402C005900D921D
:10034000AA35B107D9F727E0AAE5B4E001C01D92AC
:10035000A739B207E1F711E0C2E9D1E004C0219763
:10036000FE010E942A1BC139D107C9F70E9425103E
:100370000C944A200C940000089583FF02C098E278
:10038000892787FD06C080649091600090931606CF
:1003900002C08091160694B7977F94BFF89490910D
:1003A0006000986190936000809360007894089555
:1003B000833081F028F4813099F08230A1F00895E3
:1003C0008730A9F08830B9F08430D1F48091800072
:1003D0008F7D03C0809180008F7780938000089587
:1003E00084B58F7702C084B58F7D84BD08958091D8
:1003F000B0008F7703C08091B0008F7D8093B000F4
:1004000008953FB7F89480910D0690910E06A09143
:100410000F06B091100626B5A89B05C02F3F19F016
:100420000196A11DB11D3FBFBA2FA92F982F882774
:10043000820F911DA11DB11DBC01CD0142E0660FCF
:10044000771F881F991F4A95D1F70895CF93DF939F
:100450000E943608EC0181E092E00E9436088C0F81
:100460009D1FDF91CF9108950F931F93CF93DF933B
:100470008C01C0E0D0E0F801EC0FFD1F6491662311
:1004800071F0E0918206F09183060190F081E02DF9
:1004900082E896E00995892B11F02196ECCFCE01E8
:1004A000DF91CF911F910F9108954F925F926F92BC
:1004B0007F928F929F92AF92BF92CF92DF92EF92F4
:1004C000FF926B017C01B42E9B01AC010E94901C39
:1004D000882319F083E294E027C026013701E894CD
:1004E00077F82FEF3FEF4FE75FE7C301B2010E94BC
:1004F000901C81110DC02FEF3FEF4FE75FE7C30165
:10050000B2010E94BF1E18161CF487E294E00CC0D2
:100510002FEF3FEF4FE75FE4C701B6010E94451C94
:10052000181684F48BE294E0FF90EF90DF90CF9068
:10053000BF90AF909F908F907F906F905F904F9003
:100540000C9436082FEF3FEF4FE75FECC701B60181
:100550000E94BF1E87FDE6CF20E030E0A901C70161
:10056000B6010E94BF1E87FF09C08DE20E94AD0642
:100570004C01F7FAF094F7F8F09402C0812C912C1A
:10058000A12C60E070E080E09FE3AB1441F020E03C
:1005900030E040E251E40E949D1BA394F6CF9B0102
:1005A000AC01C701B6010E94311B2B013C010E9426
:1005B000161C6B017C010E94C41E9B01AC01C3018F
:1005C000B2010E94301B2B013C014AE0C701B60179
:1005D0000E9448087C01E80CF91CBB2029F08EE23F
:1005E0000E94AD06E80EF91EDB2CDD2021F120E093
:1005F00030E040E251E4C301B2010E94251F2B010B
:100600003C010E94161C4B01A12CB12C4AE0C501F3
:10061000B4010E944808E80EF91EC501B4010E9409
:10062000C41E9B01AC01C301B2010E94301B2B010F
:100630003C01DA94DACFC701FF90EF90DF90CF90C2
:10064000BF90AF909F908F907F906F905F904F90F2
:100650000895CF93DF9342E00E945502EC0181E0C0
:1006600092E00E9436088C0F9D1FDF91CF91089574
:10067000DC01E0E0615038F08D91E827F0E0EB54C8
:10068000FF4FE491F7CF8E2F0895FC0190810180F8
:10069000F281E02DF8948181892B81832281892F39
:1006A000809528232283A7E0B0E01197F1F72181FC
:1006B00082238183A3E2B0E01197F1F780817894DF
:1006C000EFECF0E03197F1F7982381E009F480E056
:1006D0000895FC0190810180F281E02D892F8095A1
:1006E00060FF12C0F8942281822382838181892B4A
:1006F0008183A3E2B0E01197F1F78281982B928376
:10070000789487ED90E011C0F8942281822382834F
:100710008181892B8183AFEFB0E01197F1F782815E
:10072000982B928378948FE090E00197F1F70895E9
:10073000CF92DF92EF92FF920F931F93CF93DF93AD
:100740001F92CDB7DEB76C01E62E08E010E0FF2463
:10075000F39461E08F2D8E2109F460E0C601498396
:100760000E946903FF0C015011094981011511050F
:1007700081F7411115C0F894D6011196ED91FC91C5
:10078000129791818C918095892381831196ED91A7
:10079000FC91129792818C91809589238283789421
:1007A0000F90DF91CF911F910F91FF90EF90DF900D
:1007B000CF900895CF92DF92EF92FF920F931F9305
:1007C000CF93DF931F92CDB7DEB78C01F62E40E0BA
:1007D00065E579830E949803CF2C7981D72E760125
:1007E00088E0E80EF11CF60161916F0140E0C8015C
:1007F0000E949803CE14DF04B1F70F90DF91CF91E0
:100800001F910F91FF90EF90DF90CF900895FC0122
:1008100090810180F281E02DF8948181292F20952B
:100820008223818378948DE743E050E0815021F169
:10083000DA011197F1F730813923C1F3F8948281FD
:10084000822382838181892B81837894ABE7B7E00F
:100850001197F1F7F894818128232183A3E1B1E076
:100860001197F1F78081982381E009F080E0789476
:10087000E3E6F6E03197F1F70895E8982A988EBDFF
:100880000DB407FEFDCF8EB56EBD0DB407FEFDCFD6
:100890008EB52A9AE89A089560E00C943D04CF93AF
:1008A000C82F81E00E944C04837E682F6C2B81E866
:1008B000CF910C943D0488E20E944C04807521F095
:1008C00080E00E944C04F7CF08958627682F629538
:1008D0006827062E669566956025062E6695602526
:1008E0006770082E892F669507946795902D862747
:1008F00006946795902586270895CF938091810669
:10090000853009F054C060E485EA0E943D0484E229
:100910000E944C04809317067894C8E488E20E94F1
:100920004C048075D9F380911E0681110FC0E091AF
:100930001906F0911A0680911E0691E0980F909387
:100940001E0690911D06E80FF11D908380E00E9425
:100950004C04E0911906F0911A0690911E0621E0D0
:10096000290F20931E06E90FF11D8083682F8091C7
:100970001B0690911C060E94650490931C068093B0
:100980001B0680912106833410F0C0931E068091CF
:10099000210620911E0690E0049630E0821793070E
:1009A000ACF080911E06883408F4B8CF0FC088E2FE
:1009B0000E944C0483FF0AC084E0809381060E9459
:1009C0004F0460E885EACF910C943D04CF910895DF
:1009D000CF92DF92EF92FF921F93CF93DF936C0140
:1009E000EC0138E0E32EF12CC031D10508F441C010
:1009F000CE0110E08032910530F01F5F193019F000
:100A000096958795F7CF10921506812F0E94BD010C
:100A100020917A0080917A008F7780937A0093B743
:100A2000917F946093BFF89483B7816083BF85B74B
:100A3000806685BF95B79F79906495BF78948895B7
:100A400083B78E7F83BF20937A008FEF0E94BD0112
:100A5000C70102C0880F991F1A95E2F7C81BD90B6E
:100A600020911506222319F0C81BD90BBDCF80E0B9
:100A700001C081E040911106509112066091130669
:100A800070911406CC1ADD0A4C0D5D1D611D711D9F
:100A90004093110650931206609313067093140648
:100AA000DF91CF911F91FF90EF90DF90CF9008954D
:100AB000CF93DF93282F30E0F901EF55FF4F84915A
:100AC000F901EC51FD4FD491F901E053FD4FC49170
:100AD000CC2391F081110E94D801EC2FF0E0EE0FB1
:100AE000FF1FEA53FD4FA591B491EC91ED2381E0F6
:100AF00090E021F480E002C080E090E0DF91CF91AF
:100B000008951F93CF93DF93282F30E0F901EF551D
:100B1000FF4F8491F901EC51FD4FD491F901E0535D
:100B2000FD4FC491CC23C9F0162F81110E94D8012A
:100B3000EC2FF0E0EE0FFF1FE956FF4FA591B491A7
:100B40008FB7F894111105C09C91ED2FE095E92322
:100B500002C0EC91ED2BEC938FBFDF91CF911F91F1
:100B60000895CF93DF9390E0FC01EC51FD4F249169
:100B7000FC01E053FD4F8491882361F190E0880FE0
:100B8000991FFC01E357FF4FC591D491FC01E95631
:100B9000FF4FA591B491611109C09FB7F894888166
:100BA000209582238883EC912E230BC0623061F460
:100BB0009FB7F8943881822F809583238883EC91A6
:100BC0002E2B2C939FBF06C08FB7F894E8812E2B55
:100BD00028838FBFDF91CF9108958E3008F08E501B
:100BE0008770806480937C0080917A008064809319
:100BF0007A0080917A0086FDFCCF80917800209168
:100C0000790090E0922B08958F929F92AF92BF92BD
:100C1000CF92DF92EF92FF926B017C010E94010262
:100C20004B015C01C114D104E104F104F1F00E9414
:100C30000102DC01CB0188199909AA09BB09883E88
:100C40009340A105B10570F321E0C21AD108E10873
:100C5000F10888EE880E83E0981EA11CB11CC11417
:100C6000D104E104F10419F7DDCFFF90EF90DF909C
:100C7000CF90BF90AF909F908F9008958EE4809317
:100C80007C0062E070E080E090E00E9404068091C9
:100C90007A00806480937A0080917A0086FDFCCF90
:100CA000809178002091790030E0322F2227A9012D
:100CB000330F660B770B9A01AB01282B60E070E3D2
:100CC00081E190E00E94E81ACA01B90108952FB7A6
:100CD000F89460911106709112068091130690911C
:100CE00014062FBF08950F931F930E946706609309
:100CF0008A0670938B0680938C0690938D06E09104
:100D00008206F09183060284F385E02D82E896E066
:100D1000099597FF1FC00E94670600918A061091EF
:100D20008B0620918C0630918D06DC01CB01801B57
:100D3000910BA20BB30B00918606109187062091B0
:100D400088063091890680179107A207B307B8F289
:100D50008FEF9FEF1F910F910895E0918206F09120
:100D600083060190F081E02D682F82E896E00994D7
:100D70001F93CF93DF93C5EBD1E0FE0114911123B4
:100D800051F01A3019F48DE00E94AD06812F0E94B7
:100D9000AD062196F2CFDF91CF911F9108958091FA
:100DA0008106843064F483B7817F8C6083BF83B70E
:100DB000816083BF889583B78E7F83BFF0CF08950E
:100DC0000F931F93CF93DF9314E0CFE1D6E005E0BC
:100DD00080918106853009F076C080911E068111D0
:100DE00072C084E0809381060E944F048AE1809360
:100DF0002106E7E6F6E080E090E0DC01AE5DB94F69
:100E000021912C9301968A319105B9F780911806AA
:100E10008093200660911D068FEF9FEF0E9465046E
:100E200090931C0680931B06909121068EEF891BE0
:100E3000809381060E945B048CE00E944F0460E076
:100E400085EA0E943D048091810683300CF0A6C0A3
:100E500088E20E944C0487FDF6CF8091810687FFCF
:100E60001BC09091210680918106E0911906F091B6
:100E70001A06E90FF11DE80FF11D87FDFA95C381F0
:100E80006C2F80911B0690911C060E946504909324
:100E90001C0680931B060DC080918106882329F0D3
:100EA000813031F4C0911C0604C0C0911B0601C002
:100EB000CAEA6C2F80E80E943D04809181068F5F12
:100EC00080938106C0CF80918106843011F5109205
:100ED000210610921E0660911D068FEF9FEF0E9463
:100EE000650490931C0680931B06D0931A06C0934A
:100EF0001906009381060E945B0460E885EA0E945F
:100F00003D0480E10E944F0462E08EE90E943D04AE
:100F100010C0853071F48091210620911E0690E06A
:100F2000049630E0821793077CF080911E06883487
:100F300058F48FEF9FEF9093410780934007809183
:100F400040079091410744CF1093810684E00E94AE
:100F50004F0480912106833418F081E090E0EBCFBC
:100F600080911B0690911C06892BB9F78091200671
:100F700086FF11C0309118063F3169F0209120069C
:100F80002F7181E090E0231302C080E090E0919502
:100F900081959109D0CF80E090E0CDCFDF91CF91C6
:100FA0001F910F9108958F929F92AF92BF92CF920F
:100FB000DF92EF92FF920F931F93CF93DF938C01F9
:100FC000EB0180912407909125070E940704882354
:100FD00009F43DC0B80180912407909125070E9433
:100FE000DA0340E06EEB80912407909125070E9480
:100FF00098038E015E0189E0A80EB11C8090240741
:101000009090250788E0C82ED12CEE24E394F12C93
:10101000C4010E9445038111FE28EE0CE1E0CE1AC6
:10102000D108B1F7F801F1928F01EA15FB0531F70C
:1010300080912407909125070E940704813039F49C
:1010400068E0CE010E94380391E02885821390E089
:10105000892FDF91CF911F910F91FF90EF90DF903B
:10106000CF90BF90AF909F908F900895009769F0B8
:10107000FC0101900020E9F73197AF01481B590BA3
:10108000BC0182E896E00C94FE0C80E090E00895AC
:101090008F929F92AF92BF920F931F93CF93DF9344
:1010A000CDB7DEB7A1970FB6F894DEBF0FBECDBFA8
:1010B00019A2423008F44AE08E010F5D1F4F842EC2
:1010C000912CA12CB12CA50194010E94C61AE62FE7
:1010D000B901CA0101501109EA3014F4E05D01C000
:1010E000E95CD801EC93232B242B252B61F7C80155
:1010F0000E943608A1960FB6F894DEBF0FBECDBF92
:10110000DF91CF911F910F91BF90AF909F908F90E3
:101110000895CF92DF92EF92FF92CF93DF936C010D
:10112000990FEE08FF08F7FE17C08DE20E94AD068A
:10113000EC0166277727CB016C197D098E099F0981
:101140004AE00E9448088C0F9D1FDF91CF91FF90CD
:10115000EF90DF90CF9008954AE0C701B601DF918C
:10116000CF91FF90EF90DF90CF900C9448080C94B3
:101170003608CF93DF93CDB7DEB729970FB6F89433
:10118000DEBF0FBECDBFFC0120812031D1F0BE01FA
:101190006F5F7F4F0E94D307882389F08D818F3343
:1011A00061F020F48F3159F489E00CC08F3519F0CB
:1011B0008F3739F004C08BE005C08AE003C080E0BF
:1011C00001C08CE029960FB6F894DEBF0FBECDBFEC
:1011D000DF91CF910895AF92BF92CF92DF92EF92BD
:1011E000FF920F931F93CF93DF931F92CDB7DEB77C
:1011F0005C01D62EE72EFC018585811105C0C50155
:101200000E940704811106C0F50113861586148615
:1012100080E065C040E060EFC5010E94980301E0F6
:10122000F12CC12C11E0C5010E944503682FC501B6
:1012300069830E9445036981613019F48130B9F4F2
:1012400033C04F2D50E068131BC0F501838518177C
:1012500030F4E40FF51F8381802349F402C018178E
:1012600031F060E0193058F4F501148708C0F50139
:10127000EF0DF11D8381802B838361E009C0C12EB6
:10128000F501E40FF51F9381802F809589238383D7
:10129000C5010E9469031F5F000F11F4F39401E080
:1012A000F7E0FF1508F0BFCF113408F4ADCFF5011A
:1012B000C386C11002C081E08587F5018381882340
:1012C00009F4A2CFD5011396ED2DFE2D9501255FD2
:1012D0003F4F8D918193A217B307D9F781E00F900B
:1012E000DF91CF911F910F91FF90EF90DF90CF9002
:1012F000BF90AF9008952F923F924F925F926F925E
:101300007F928F929F92AF92BF92CF92DF92EF9295
:10131000FF920F931F93CF93DF9300D000D0CDB7F0
:10132000DEB79C838B830E943E066B017C010EE737
:1013300016E08B819C81885B9F4F9A8389832B80E9
:101340003C809CE4290E311CEB81FC8186890E9443
:10135000ED05EB81FC8197A386A3BC01990F880B57
:10136000990B0E94C61E4B015C01EB81FC8140ACD5
:1013700051AC62AC73ACA30192010E94301B20E01F
:1013800030E040E85AE30E94251F9B01AC01C301F5
:10139000B2010E94311B9B01AC01EB81FC8160AF6B
:1013A00071AF82AF93AFC501B4010E94301BEB81D6
:1013B000FC8160AB71AB82AB93AB9B01AC010E9433
:1013C000251FE981FA816083718382839383F10110
:1013D00020813181428153810E94311BF101608360
:1013E0007183828393830150110909F0ADCF20E00E
:1013F00030EC4FEC54E40E949D1B0E94501C4B01AA
:101400005C01B601DD0C880B990B0E94C61E20E022
:1014100030E04AE754E40E949D1B20E030E040E8C1
:101420005AE30E94251FEB81FC81248D358D468D6A
:10143000578D0E94251FA50194010E94251FEB8155
:10144000FC81608B718B828B938BF10110821182F6
:10145000128213820F900F900F900F90DF91CF9117
:101460001F910F91FF90EF90DF90CF90BF90AF90C2
:101470009F908F907F906F905F904F903F902F90B4
:1014800008952F923F924F925F926F927F928F9228
:101490009F92AF92BF92CF92DF92EF92FF920F9303
:1014A0001F93CF93DF93CDB7DEB7A2970FB6F89413
:1014B000DEBF0FBECDBF9AA389A30E943E06698BF3
:1014C0007A8B8B8B9C8B0E9467064B015C0169A019
:1014D0007AA028E5620E711CA9A1BAA154968C913C
:1014E0000E94ED05F30191838083BC01990F880B65
:1014F000990B0E94C61E6B017C012DEC3CEC4CE06C
:1015000054E40E94BF1E87FF0BC011E026E636E6BA
:1015100046EE53E4C701B6010E94451C18160CF0B4
:1015200010E00E946706DC01CB0188199909AA091D
:10153000BB09813D9740A105B10510F4112361F26B
:101540000E9467066D8B7E8B8F8B988F00E010E07A
:101550001A82198229A13AA1205C3F4F3A8F298F24
:1015600049A15AA14C5B5F4F5C874B8789A19AA127
:10157000885B9F4F9C8F8B8FA9A1BAA1A45BBF4FA3
:10158000BE87AD87E9A1FAA1E05BFF4FFE8FED8F2B
:1015900029A13AA12C5A3F4F388B2F8749A15AA134
:1015A000465A5F4F5E834D8329A03AA05BE5250E26
:1015B000311C89A19AA1885A9F4F98A38F8F0E94AE
:1015C0006706DC01CB012D893E894F89588D821B2E
:1015D000930BA40BB50B803D9740A105B10508F412
:1015E000DAC049895A89BA01550F880B990B0E94B4
:1015F000C61E20E030E04AE754E40E949D1B20E034
:1016000030E040E85AE30E94251F2B013C01A9A1CC
:10161000BAA158962D913D914D915C915B970E9496
:10162000251F4B015C01E981FA81BF0180E090E058
:101630000E94C41E6B017C0129A03AA0F4E42F0E85
:10164000311C9B01AC01D1016D917D918D919C91DB
:101650000E949D1B0E94501C9B01AC01C501B4015E
:101660000E94251F69837A838B839C83E9A1FAA159
:101670006487758786879787248D358D468D578D2E
:10168000C301B2010E94251F2B013C0109A11AA12F
:10169000045B1F4FA7019601D8016D917D918D913B
:1016A0009C910E949D1B0E94501C9B01AC01C30198
:1016B000B2010E94251F6D837E838F839887E9A1E5
:1016C000FAA1608B718B828B938BA3019201C50170
:1016D000B4010E94251FA9A0BAA0F4E5AF0EB11C69
:1016E000D5012D913D914D915C910E94251FA7013F
:1016F00096010E949D1B6B017C01E9A1FAA1608308
:101700007183828393832D813E814F8158856981C6
:101710007A818B819C810E94251F9B01AC01A9A12C
:10172000BAA114966D937D938D939C931797C701DF
:10173000B6010E949D1BE9A1FAA16087718782878B
:101740009387D1011D921D921D921C921397F8014F
:101750001082118212821382D5011D921D921D9258
:101760001C921397A2960FB6F894DEBF0FBECDBFA2
:10177000DF91CF911F910F91FF90EF90DF90CF906D
:10178000BF90AF909F908F907F906F905F904F90A1
:101790003F902F900895E981FA813196FA83E98389
:1017A000E9A1FAA184A595A5A6A5B7A580A791A7AB
:1017B000A2A7B3A784890E94ED05A9A1BAA1959615
:1017C0009C938E93949756968C910E94ED053C01C4
:1017D000E9A1FAA197A386A324A135A13A87298775
:1017E000B901330F880B990B0E94C61E6B017C0157
:1017F000A9A1BAA1D4968D909D90AD90BC90D79799
:10180000A50194010E94301B20E030E040E85AE33B
:101810000E94251F9B01AC01C501B4010E94311B30
:101820009B01AC01E9A1FAA164AB75AB86AB97ABA8
:10183000C701B6010E94301B4B015C01A9A1BAA1EE
:101840009C966D937D938D939C939F97B301770C9A
:10185000880B990B0E94C61E6B017C01E9A1FAA1BD
:1018600040AC51AC62AC73ACA30192010E94301B3E
:1018700020E030E040E85AE30E94251F9B01AC01C4
:10188000C301B2010E94311B9B01AC01A9A1BAA105
:10189000D8966D937D938D939C93DB97C701B6018A
:1018A0000E94301B6B017C01E9A1FAA160AB71AB16
:1018B00082AB93ABA5019401C501B4010E94251F21
:1018C0009B01AC01A98DBA8D6D937D938D939C93F3
:1018D0001397EB85FC8560817181828193810E94E1
:1018E000311BAB85BC856D937D938D939C93139732
:1018F000A7019601C701B6010E94251F9B01AC01FB
:10190000EB8DFC8D6083718382839383AD85BE856F
:101910006D917D918D919C910E94311BED85FE858D
:101920006083718382839383A9A1BAA198964D9015
:101930005D906D907C909B97A3019201C501B401CD
:101940000E94301BE9A1FAA120A131A142A153A11B
:101950000E94251F9B01AC01C301B2010E94311BF3
:10196000A9A1BAA1DC966D937D938D939C93DF978B
:10197000A70196010E94251F9B01AC01ED8DFE8DF4
:101980006083718382839383AF85B8896D917D91E4
:101990008D919C910E94311BEF85F8896083718342
:1019A00082839383D1018C91ED81FE818083AF8D01
:1019B000B8A18D919C91E985FA858E179F0724F433
:1019C000E1E0D101EC9302C0D1011C92E981FA81DE
:1019D000319729F4D1018C91ED81FE818083AD8115
:1019E000BE819C91F1018081981711F00F5F1F4F0C
:1019F0000E31110508F0F5CDE2CD0895CF92DF92BA
:101A0000EF92FF920F931F93CF93DF936C017A01B4
:101A10008B01C0E0D0E0CE15DF0589F0D8016D91D3
:101A20008D01D601ED91FC910190F081E02DC60170
:101A30000995892B11F47E0102C02196ECCFC701D4
:101A4000DF91CF911F910F91FF90EF90DF90CF909A
:101A50000895089580E090E00895FC01538D448D31
:101A6000252F30E0842F90E0821B930B541710F049
:101A7000CF96089501970895FC01918D828D981756
:101A800061F0828DDF01A80FB11D5D968C91928D62
:101A90009F5F9F73928F90E008958FEF9FEF08955F
:101AA000FC01918D828D981731F0828DE80FF11D28
:101AB000858D90E008958FEF9FEF0895FC01918D43
:101AC000228D892F90E0805C9F4F821B91098F733C
:101AD0009927089582E896E00E945E0D21E0892B07
:101AE00009F420E0822F0895FC01848DDF01A80F06
:101AF000B11DA35ABF4F2C91848D90E001968F7336
:101B00009927848FA689B7892C93A089B1898C9154
:101B100080648C93938D848D981306C00288F3891A
:101B2000E02D80818F7D80830895EF92FF920F9347
:101B30001F93CF93DF93EC0181E0888F9B8D8C8D79
:101B4000981305C0E889F989808185FD24C0F62EA7
:101B50000B8D10E00F5F1F4F0F731127E02E8C8D40
:101B6000E8120CC00FB607FCFACFE889F98980812A
:101B700085FFF5CFCE010E94740DF1CF8B8DFE0154
:101B8000E80FF11DE35AFF4FF0820B8FEA89FB89C2
:101B90008081806207C0EE89FF896083E889F989C6
:101BA00080818064808381E090E0DF91CF911F91FC
:101BB0000F91FF90EF900895CF93DF93EC01888D04
:101BC0008823C9F0EA89FB89808185FD05C0A88941
:101BD000B9898C9186FD0FC00FB607FCF5CF8081C7
:101BE00085FFF2CFA889B9898C9185FFEDCFCE0111
:101BF0000E94740DE7CFDF91CF91089580E090E0CF
:101C0000892B29F00E946A0D81110C94000008951F
:101C10000E94A11E0F931F930E94670600918D07DB
:101C200010918E0720918F0730919007DC01CB0136
:101C3000801B910BA20BB30B8F369105A105B1054B
:101C400028F080915B048F5F80935B040E9467069D
:101C500060938D0770938E0780938F079093900702
:101C60001F910F9108950F931F93CF93DF93EC0172
:101C700088819981009729F02A813B8126173707AF
:101C800088F48B016F5F7F4F0E94D71D009761F032
:101C9000998388831B830A832C813D81232B11F434
:101CA000FC01108281E001C080E0DF91CF911F91A3
:101CB0000F9108951F920F920FB60F9211242F9338
:101CC0003F934F935F936F937F938F939F93AF93C4
:101CD000BF93EF93FF93E0910201F0910301099507
:101CE000FF91EF91BF91AF919F918F917F916F91F4
:101CF0005F914F913F912F910F900FBE0F901F90CA
:101D000018951F920F920FB60F9211242F933F93A5
:101D10004F935F936F937F938F939F93AF93BF93F3
:101D2000EF93FF93E0910001F09101010995FF917C
:101D3000EF91BF91AF919F918F917F916F915F9143
:101D40004F913F912F910F900FBE0F901F901895BC
:101D50001F920F920FB60F9211242F933F934F9320
:101D60005F936F937F938F939F93AF93BF93EF9303
:101D7000FF9382E896E00E94740DFF91EF91BF916E
:101D8000AF919F918F917F916F915F914F913F9113
:101D90002F910F900FBE0F901F9018951F920F92CA
:101DA0000FB60F9211242F938F939F93EF93FF936E
:101DB000E0919206F09193068081E0919806F0916F
:101DC000990682FD12C0908180919B068F5F8F7370
:101DD00020919C06821751F0E0919B06F0E0EE57AF
:101DE000F94F958F80939B0601C08081FF91EF9101
:101DF0009F918F912F910F900FBE0F901F9018956C
:101E0000CF93DF9390ED980F9A3060F49091910703
:101E1000990F292F220F220F920F9053890F809331
:101E20009107B5C081320CF4B0C0893619F16CF459
:101E3000823639F1873609F060C08091910790E0D1
:101E400090930901809308015AC0833781F1863746
:101E500009F053C083E193E00E94340242E060E065
:101E600070E080E490E40E94550281E193E00E94DA
:101E7000340245C080919107882319F080930B01AB
:101E80003EC080919107843031F0883031F0893044
:101E900031F080E005C081E003C082E001C083E052
:101EA00080939107882359F180930A0128C08FE21B
:101EB00094E00E942602C0E0D0E060E0CE010E94E3
:101EC000EB1F2196C11584E0D807B9F760910B018B
:101ED00080E090E00E94EB1F60910A0181E090E0B9
:101EE0000E94EB1F6091080182E090E00E94EB1FCE
:101EF00089E394E00E94260202C00E94B8068FE0A7
:101F000093E00E9434028CE093E00E9434028091BE
:101F10000B018F7190E00E94890889E093E00E9494
:101F2000340280910801909109010E94890885E09E
:101F300093E00E94340280910A01813039F08230AE
:101F400041F0833049F080E090E008C081EB91E0FF
:101F500005C084E693E002C083E993E00E9489080B
:101F600080E093E00E9434028AEF92E00E94340203
:101F700080915A0490E00E94890888EF92E00E94C4
:101F8000340281E092E00E94360810929107DF91BE
:101F9000CF9108951F920F920FB60F9211248F9335
:101FA000809115068F5F809315068F910F900FBE5D
:101FB0000F901F9018951F920F920FB60F92112439
:101FC0002F933F938F939F93AF93BF93809111066D
:101FD00090911206A0911306B091140630919207C9
:101FE00023E0230F2D3720F40196A11DB11D05C05C
:101FF00026E8230F0296A11DB11D2093920780931E
:10200000110690931206A0931306B09314068091C4
:102010000D0690910E06A0910F06B0911006019644
:10202000A11DB11D80930D0690930E06A0930F067F
:10203000B0931006BF91AF919F918F913F912F91D7
:102040000F900FBE0F901F901895CF93DF93CDB7D1
:10205000DEB763970FB6F894DEBF0FBECDBF78949E
:1020600084B5826084BD84B5816084BD85B582609D
:1020700085BD85B5816085BD80916E00816080934E
:102080006E001092810080918100826080938100B7
:1020900080918100816080938100809180008160C7
:1020A000809380008091B10084608093B100809122
:1020B000B00081608093B00080917A00846080934A
:1020C0007A0080917A00826080937A0080917A0011
:1020D000816080937A0080917A00806880937A0092
:1020E0001092C10061E086E00E94B10561E083E1E9
:1020F0000E94B10562E083E00E94B10510927D0666
:1021000010927E0610927F061092800661E086E0B3
:102110000E94810562E088E00E94B10562E089E0EA
:102120000E94B105E0919206F091930682E08083CF
:10213000E0918E06F0918F061082E0919006F0916A
:10214000910680E1808310929A06E0919606F091C4
:10215000970686E08083E0919406F0919506808151
:1021600080618083E0919406F0919506808188607B
:102170008083E0919406F091950680818068808349
:10218000E0919406F091950680818F7D80838FE2A7
:1021900091E00E94B70860E070E080E490E40E9463
:1021A00029038FE491E00E94260282EB93E00E94D3
:1021B000260280E090E00E94E31F8F3F21F0809391
:1021C0000B0111E001C010E081E090E00E94E31FEC
:1021D0008F3F19F080930A011F5F82E090E00E9418
:1021E000E31F8F3F31F090E0909309018093080145
:1021F00002C0112319F085E691E002C08FE791E05B
:102200000E94260280E991E00E94B70888E00E94BF
:102210005805892B29F480910B01815080930B0183
:1022200088E991E00E94B70860910B0170E080E0BE
:1022300090E04AE00E94480880EA91E00E94B708D6
:1022400080910A01813021F488EA91E00E94B70868
:1022500080910A01823021F48FEA91E00E94B70850
:1022600080910A01833021F486EB91E00E94B70847
:102270008DEB91E00E94B708C0900801D090090151
:102280000D2C000CEE08FF08F7FE0CC08DE20E943A
:10229000AD0666277727CB016C197D098E099F094A
:1022A0004AE003C04AE0C701B6010E94480881E045
:1022B00092E00E94360882EB93E00E94260286ECB0
:1022C00091E00E94260288ED91E00E94260289E0BA
:1022D0000E945805892B19F481E080935A0480915B
:1022E0005A04882379F080E090E0A2E0B3E4809380
:1022F000040190930501A0930601B093070188E7BC
:1023000080930C016AE070E080E090E00E94040697
:1023100000910801F0900A0110910B01EFEFEF0D11
:10232000E33028F4F0E0ED5EFE4FA08101C0A0E0B4
:10233000B0E020E836E948E950E00E94F91F2B019F
:102340003C01AF2DB0E020E039E04DE350E00E94C9
:10235000F91FDC01CB01840D951DA61DB71DBC0125
:10236000CD0152E0660F771F881F991F5A95D1F74C
:1023700029E03DE340E050E00E94C61ADA01C901BD
:1023800066E0880F991FAA1FBB1F6A95D1F780933B
:102390005C0490935D04A0935E04B0935F0400938B
:1023A0001D06812F8F718093180664E170E080E034
:1023B00090E00E94040680911806882369F08DE75A
:1023C00094E0909301018093000180916900836003
:1023D00080936900E89A07C0E8988DEF9CE090939D
:1023E0000101809300012A9A229A2A9A84B18C6270
:1023F00084B980E58CBD8DB581608DBD6AEA8FEAB8
:102400000E943D048FE20E944C048A3AB9F765E5C8
:102410008FEA0E943D048FE20E944C048535B9F793
:1024200048E6E42E40E0F42EF7018491882349F039
:102430003196649180680E943D04F2E0EF0EF11C39
:10244000F3CF60911D0681EB0E943D04C0905C04B7
:10245000D0905D04E0905E04F0905F04B70188279F
:10246000992787E80E943D0499278F2D7E2D6D2D99
:1024700088E80E943D046C2D89E80E943D0484E0B8
:1024800080938106109360040AE010E010936806C0
:10249000009367060E94E00664E670E080E090E04A
:1024A0000E9404060150110988F70E94CF0610927D
:1024B00068061092670681E00E94ED05181619065D
:1024C0004CF481E080930706809161048F5F8093D4
:1024D000610402C01092070682E00E94ED05181602
:1024E00019064CF481E08093AA05809161048F5F06
:1024F0008093610402C01092AA0583E00E94ED055A
:10250000181619064CF481E080934D058091610402
:102510008F5F8093610402C010924D0584E00E9499
:10252000ED05181619064CF481E08093F0048091B3
:1025300061048F5F8093610402C01092F004809167
:102540006104811103C081E0809307060E94670641
:102550006093090670930A0680930B0690930C060D
:102560000E9467060091090610910A0620910B0649
:1025700030910C06005F184D2F4F3F4F60177107C9
:102580008207930708F070C082E896E00E945E0D13
:10259000892B31F31A8219821C821B821E821D82B2
:1025A00060E070E0CE0101960E94330E29813A81ED
:1025B00081110DC02115310519F0C9010E943F1D7F
:1025C0001A8219821E821D821C821B8220C01E82DA
:1025D0001D8263E072E0C9010E94B81E18C08A879C
:1025E0001B860F5F1F4FB801CE0101960E94330E6C
:1025F000882369F029813A818D819E81BE01665FC1
:102600007F4F820F931F0E94B81E1E830D830E946E
:1026100073060D811E8197FFE2CFE980FA80012BBE
:1026200041F06EEF71E0C7010E94AF1E11E0892BEF
:1026300009F010E0C7010E943F1D112309F490CF5B
:1026400084E092E00E9426020E94B80686E70E947B
:10265000000F82E896E00E945E0D892BD1F382E89C
:1026600096E00E943C0DF3CF60E086E00E94810579
:1026700004EF16E0C12CD12C760180E00E94ED051C
:10268000DC01B2509D010E94071BC60ED71EE81E3A
:10269000F91E0150110989F7C701B6010E94C41E35
:1026A00020E030E84EED54E40E949D1B0E94501C37
:1026B0006B017C0123E333E343E55BE360910401B9
:1026C0007091050180910601909107010E94251FDC
:1026D0009B01AC01C701B6010E94251F6B017C0163
:1026E00020E030E044EB52E40E94451C181624F42C
:1026F00081E08093080602C01092080680910806C7
:102700008823D1F00AE010E061E086E00E948105B4
:1027100068EC70E080E090E00E94040660E086E0F3
:102720000E9481056CE271E080E090E00E94040666
:102730000150110949F714C068EE73E080E090E0A1
:102740000E94040661E086E00E94810560ED77E06A
:1027500080E090E00E94040660E086E00E9481052F
:1027600061E083E10E94810564E670E080E090E032
:102770000E940406E0912407F09125071386158630
:102780001486DF011B9633961E92AE17BF07E1F742
:102790001092230711E0BE016F5F7F4F80912407E5
:1027A000909125070E94EB08882309F449C067E04F
:1027B000CE0101960E94380398858913ECCF809151
:1027C0001F07811126C080912407909125070E9440
:1027D0000704BE016F5F7F4F80912407909125070A
:1027E0000E94DA0340E064EB809124079091250772
:1027F0000E94980380912407909125070E94450329
:10280000082F80912407909125070E940704002338
:10281000B1F100912007CE0101960E94B9088017FE
:1028200018F48091200704C0CE0101960E94B908D7
:1028300080932007809123078F5F80932307ABCF7E
:10284000109221078091230780936204873018F04B
:1028500086E08093620410E000916204101790F407
:1028600038E0139FC0011124BC016D597B4F82E3F6
:1028700097E00E94EB08882329F01F5FEDCF1093AB
:102880001F07C7CF64EF71E080E090E00E9404066C
:1028900060E083E10E948105011103C0109293045E
:1028A00003C081E0809393048CE192E00E94B7081A
:1028B0006DEC7CEC85EB92E40E94290386E292E0C9
:1028C0000E94B7086DEC7CEC85EB92E40E94290332
:1028D00080E392E00E94B7086DEC7CEC85EB92E41B
:1028E0000E9429038AE392E00E94B70869E27CE52E
:1028F00085E891E40E94290368EE73E080E090E0AF
:102900000E94040684E492E00E94B70840E0C701F8
:10291000B6010E9455028DE491E00E94260280914A
:102920000806882349F180E692E00E9426028CE89E
:1029300092E00E94260280915A04882321F084EBC1
:1029400092E00E94260284EC92E00E94B708609117
:1029500004017091050180910601909107010E9488
:1029600029038BEC92E00E94B7086AE979E989EDC6
:102970009FE30E94290318C089ED92E00E9426027D
:102980008BE093E00E94B70860910C0170E080E05A
:1029900090E04AE00E9448088DE491E00E942602FF
:1029A0008BE193E00E94260280916104811103C0B3
:1029B00082E593E01EC080910706882321F083E61C
:1029C00093E00E9426028091AA05882321F081E7E6
:1029D00093E00E94260280914D05882321F08FE725
:1029E00093E00E9426028091F004882321F08DE874
:1029F00093E00E94260280919304882389F08BE95A
:102A000093E00E94B7086091620470E080E090E07B
:102A10004AE00E94480881E092E00E94360804C023
:102A200084EB93E00E9426028AEC93E00E94B708B0
:102A300080919304882361F08AEE93E00E94B708A6
:102A40006091620470E080E090E04AE00E944808F3
:102A500082EB93E00E94260264EF71E080E090E058
:102A60000E94040681E090E09093C2058093C10526
:102A70004DEC5CEC65EB72E44093C7055093C805E0
:102A80006093C9057093CA0580E090E0A0E0B4E4CB
:102A90008093E3059093E405A093E505B093E605E4
:102AA00022E030E0309365052093640540936A0589
:102AB00050936B0560936C0570936D05809386054C
:102AC00090938705A0938805B093890523E030E0B3
:102AD000309308052093070540930D0550930E058C
:102AE00060930F05709310058093290590932A0534
:102AF000A0932B05B0932C0524E030E03093AB0479
:102B00002093AA0449E25CE565E871E44093B004CF
:102B10005093B1046093B2047093B3048093CC04D7
:102B20009093CD04A093CE04B093CF0420910806D7
:102B3000222309F47CC00091040110910501209129
:102B40000601309107011092C0051092BF05009355
:102B5000C3051093C4052093C5053093C6054AE903
:102B600059E969ED7FE34093CB055093CC05609321
:102B7000CD057093CE058093DF059093E005A0937B
:102B8000E105B093E205109263051092620500938F
:102B90006605109367052093680530936905409397
:102BA0006E0550936F056093700570937105809367
:102BB000820590938305A0938405B09385051092B8
:102BC0000605109205050093090510930A05209348
:102BD0000B0530930C05409311055093120560933B
:102BE0001305709314058093250590932605A093F3
:102BF0002705B09328051092A9041092A804009309
:102C0000AC041093AD042093AE043093AF04409312
:102C1000B4045093B5046093B6047093B7048093E2
:102C2000C8049093C904A093CA04B093CB048AE06B
:102C30009EE0909303018093020180916900837F5D
:102C4000886080936900E99A88EB9BE09093720614
:102C50008093710690937406809373069093760622
:102C600080937506909378068093770690937A0602
:102C70008093790690937C0680937B069CEA492E8C
:102C800096E2592E612C712C0E946706609309060A
:102C900070930A0680930B0690930C061091080619
:102CA000112351F068EC70E080E090E00E9404068F
:102CB0001092700610926F0680910706811103C072
:102CC000111103C04CC0112339F18BEA95E00E9429
:102CD000410A6091AB057091AC058091AD05909172
:102CE000AE050E940F1C709368066093670620E093
:102CF00030E048EC52E46091B7057091B8058091DE
:102D0000B9059091BA050E94251F0E940F1C70936F
:102D1000700660936F061AC08BEA95E00E947B09EB
:102D20006B017C0180910C01682F70E080E090E0E5
:102D30000E94C61E9B01AC01C701B6010E94251F5F
:102D40000E940F1C709368066093670681E00E94E2
:102D5000ED05892B21F41092680610926706909178
:102D6000AA0580910806911103C0882309F44CC07C
:102D7000882339F18EE495E00E94410A60914E0566
:102D800070914F0580915005909151050E940F1C44
:102D900070936A066093690620E030E048EC52E4E4
:102DA00060915A0570915B0580915C0590915D057D
:102DB0000E94251F0E940F1C7093700660936F067F
:102DC0001AC08EE495E00E947B096B017C01809122
:102DD0000C01682F70E080E090E00E94C61E9B010D
:102DE000AC01C701B6010E94251F0E940F1C709301
:102DF0006A066093690682E00E94ED05892B21F442
:102E000010926A061092690690914D05809108060D
:102E1000911103C0882309F44CC0882339F181EF54
:102E200094E00E94410A6091F1047091F204809153
:102E3000F3049091F4040E940F1C70936C0660934D
:102E40006B0620E030E048EC52E46091FD047091A4
:102E5000FE048091FF04909100050E94251F0E94AE
:102E60000F1C7093700660936F061AC081EF94E098
:102E70000E947B096B017C0180910C01682F70E03E
:102E800080E090E00E94C61E9B01AC01C701B60124
:102E90000E94251F0E940F1C70936C0660936B06A6
:102EA00083E00E94ED05892B21F410926C061092AC
:102EB0006B069091F00480910806911103C088235D
:102EC00009F44CC0882339F184E994E00E94410A56
:102ED0006091940470919504809196049091970468
:102EE0000E940F1C70936E0660936D0620E030E028
:102EF00048EC52E46091A0047091A1048091A20476
:102F00009091A3040E94251F0E940F1C70937006CD
:102F100060936F061AC084E994E00E947B096B01FC
:102F20007C0180910C01682F70E080E090E00E94AD
:102F3000C61E9B01AC01C701B6010E94251F0E945D
:102F40000F1C70936E0660936D0684E00E94ED0581
:102F5000892B21F410926E0610926D06809108065E
:102F6000811115C087E00E94ED05BC01990F880B07
:102F7000990B0E94C61E2BE23BE64EE25FE30E94E5
:102F8000251F0E940F1C7093700660936F0680913E
:102F90009304882309F481C161E083E10E948105E3
:102FA00082E390E00E94E804B3E6EB2EB4E0FB2E4F
:102FB0008701A12CB12C8BE0982ED09062048D2D2E
:102FC00090E0A816B9060CF0B7C0C8010E94B90875
:102FD0008B3009F4ABC0BE016F5F7F4FC8010E9408
:102FE000D307882309F4A2C0F8018081803109F455
:102FF0009DC0FFE5FD8380912407909125070E94E5
:103000000704B80180912407909125070E94DA03F4
:1030100040E06EE480912407909125070E94980378
:1030200040E06B8180912407909125070E949803CE
:1030300040E06C8180912407909125070E949803BD
:10304000F8018081803141F040E06D81809124075A
:10305000909125070E94980380912407909125075D
:103060000E940704B80180912407909125070E94CF
:10307000DA0340911F0768E48091240790912507A7
:103080000E94980364E170E080E090E00E940406F2
:1030900080911F07882331F06AE070E080E090E0C3
:1030A0000E94040680912407909125070E9407043E
:1030B00080912007909220078C30C0F1C12CD12C38
:1030C0008091230790E0C816D90684F52C2CE09156
:1030D0002407F0912507138615861486DF011B96B9
:1030E00033961E92AE17BF07E1F7312CBE01665F23
:1030F0007F4F80912407909125070E94EB08811152
:10310000A2C120902007CE010A960E94B90882151C
:1031100018F48091200704C0CE010A960E94B908D5
:1031200080932007FFEFCF1ADF0ACACF2FEFA21A32
:10313000B20A085F1F4F41CF809124079091250765
:103140000E94070440E06CEC8091240790912507D1
:103150000E94980340911F0764E480912407909196
:1031600025070E949803809121078823A9F0E09108
:103170002007E950E33040F4F0E0EE0FFF1FEA5E75
:10318000FE4F6081718102C06EEE72E0072E000C6E
:10319000880B990B0E94040687E791E00E94E804DF
:1031A00001E716E0C12CCD1409F473C0BE016F5FB6
:1031B0007F4FC7010E94D307882361F1698138E0FE
:1031C000639FB00111248A81282F30E0322F2227FB
:1031D000330F330F330F262B372BF70180818031CC
:1031E000E1F4688570E08F81AB01481B5109CA0189
:1031F0009695982F8827979587950E94B21A6051C7
:103200007109207F53E0220F331F5A95E1F7620FB7
:10321000731F04C060E874EE01C0B901613854EE58
:10322000750764F1072E000C880B990B0E94C61ECF
:1032300020E030E040E05CE30E94251F4B015C0190
:1032400020E030E04AEF52E40E94BF1E87FF16C024
:1032500020E030E04CE552ECC501B4010E94451C71
:10326000181664F420E030E040E251E4C501B401F6
:103270000E94251F0E940F1C7B8B6A8BF8012A89F4
:103280003B89219331938F01C39438E0E30EF11C05
:103290008ACF60E083E10E94810580915B048823EE
:1032A000D1F0F89420915B0480917D0690917E0688
:1032B000A0917F06B0918006820F911DA11DB11DC6
:1032C00080937D0690937E06A0937F06B093800640
:1032D00010925B0478948AEF93E00E94B708809183
:1032E0006706909168060E9489088FEF93E00E941C
:1032F000B7088091690690916A060E94890885E066
:1033000094E00E94B70880916B0690916C060E9431
:1033100089088BE094E00E94B70880916D06909137
:103320006E060E94890881E194E00E94B7088091AE
:103330006F06909170060E94890888E194E00E94CF
:10334000B70860917D0670917E0680917F0690910E
:1033500080064AE00E9448088091930481111DC0B4
:1033600081E092E00E94360862E370E080E090E045
:103370000E94040610910806112379F161E086E0AD
:103380000E94810568EC70E080E090E00E940406F5
:1033900060E086E00E94810520C010E08091620418
:1033A0001817F0F680E294E00E94B708612F70E0F1
:1033B00080E090E04AE00E9448088DEF93E00E9490
:1033C000B708E12FF0E0EE0FFF1FEF58F94F8081B3
:1033D00091810E9489081F5FE1CF84E00E944F0421
:1033E00004E0009381060E94E0060E94CF061111BE
:1033F00005C080E00E944F04009381060E9467068A
:10340000C0900906D0900A06E0900B06F0900C06DA
:10341000DC01CB018C199D09AE09BF09A301920102
:10342000281B390B4A0B5B0BCA01B901112319F098
:103430000E94040605C0C901845F91400E94E8040F
:103440000E94FE0D21CC321009C067E0CE010A9621
:103450000E9438039989891709F453CE33942314B1
:1034600008F44FCE43CE109285061092840688EE63
:1034700093E0A0E0B0E08093860690938706A09347
:103480008806B093890681E291E090938306809349
:10349000820685EC90E090938F0680938E0684ECF4
:1034A00090E0909391068093900680EC90E090934A
:1034B00093068093920681EC90E09093950680931A
:1034C000940682EC90E0909397068093960686ECA3
:1034D00090E0909399068093980610929B06109224
:1034E0009C0610929D0610929E0660E085E00E9468
:1034F000B105E9EEF2E0E491E0933207E5EDF2E0A8
:10350000E491F0E0EE0FFF1FEA53FD4F8591949197
:10351000909334078093330710923D0710923F0732
:1035200010923E07EDE3F7E0129287E0E533F807EB
:10353000D9F78CEB91E0909331078093300782E3C9
:1035400097E0909325078093240710922307109209
:103550001F0789E08093200781E0809321078093F3
:103560002207089597FB072E16F4009407D077FDE5
:1035700009D00E94161B07FC05D03EF4909581955A
:103580009F4F0895709561957F4F0895A1E21A2E7F
:10359000AA1BBB1BFD010DC0AA1FBB1FEE1FFF1FF7
:1035A000A217B307E407F50720F0A21BB30BE40B47
:1035B000F50B661F771F881F991F1A9469F760958E
:1035C0007095809590959B01AC01BD01CF01089548
:1035D000052E97FB1EF400940E94FF1A57FD07D09A
:1035E0000E94C61A07FC03D04EF40C94FF1A5095A3
:1035F0004095309521953F4F4F4F5F4F08959095DF
:103600008095709561957F4F8F4F9F4F08950E94D1
:103610003B20332312F48A1B9B0B0C94111B0E943A
:103620003B20B7FF0895821B930B0895AA1BBB1B79
:1036300051E107C0AA1FBB1FA617B70710F0A61BB2
:10364000B70B881F991F5A95A9F780959095BC01D3
:10365000CD010895EE0FFF1F0590F491E02D099420
:103660005058BB27AA270E94481B0C94A91F0E94F0
:103670009B1F38F00E94A21F20F039F49F3F19F4DD
:1036800026F40C94981F0EF4E095E7FB0C94921F1F
:10369000E92F0E94BA1F58F3BA176207730784070D
:1036A000950720F079F4A6F50C94DC1F0EF4E09554
:1036B0000B2EBA2FA02D0B01B90190010C01CA01EC
:1036C000A0011124FF27591B99F0593F50F4503E97
:1036D00068F11A16F040A22F232F342F4427585F89
:1036E000F3CF469537952795A795F0405395C9F7A1
:1036F0007EF41F16BA0B620B730B840BBAF0915059
:10370000A1F0FF0FBB1F661F771F881FC2F70EC0F7
:10371000BA0F621F731F841F48F4879577956795CA
:10372000B795F7959E3F08F0B0CF9395880F08F0B6
:103730009927EE0F9795879508950E94B11B0C94D9
:10374000A91F0E94A21F58F00E949B1F40F029F45D
:103750005F3F29F00C94921F51110C94DD1F0C94C3
:10376000981F0E94BA1F68F39923B1F3552391F370
:10377000951B550BBB27AA2762177307840738F0E0
:103780009F5F5F4F220F331F441FAA1FA9F335D03D
:103790000E2E3AF0E0E832D091505040E695001CF1
:1037A000CAF72BD0FE2F29D0660F771F881FBB1FAB
:1037B000261737074807AB07B0E809F0BB0B802D89
:1037C000BF01FF2793585F4F3AF09E3F510578F0B5
:1037D0000C94921F0C94DD1F5F3FE4F3983ED4F3EA
:1037E000869577956795B795F7959F5FC9F7880F89
:1037F000911D9695879597F90895E1E0660F771FDB
:10380000881FBB1F621773078407BA0720F0621B6B
:10381000730B840BBA0BEE1F88F7E09508950E9496
:10382000161C6894B1110C94DD1F08950E94C21FEC
:1038300088F09F5798F0B92F9927B751B0F0E1F071
:10384000660F771F881F991F1AF0BA95C9F714C021
:10385000B13091F00E94DC1FB1E008950C94DC1FA0
:10386000672F782F8827B85F39F0B93FCCF386955A
:1038700077956795B395D9F73EF4909580957095B7
:1038800061957F4F8F4F9F4F08950E94011F08F44D
:103890008FEF089519F416F40C94981F0C94951C4E
:1038A0000E94C21FB8F39923C9F3B6F39F57550B73
:1038B00087FF0E94A31C0024A0E640EA90018058E4
:1038C0005695979528F4805C660F771F881F20F027
:1038D00026173707480730F4621B730B840B202927
:1038E00031294A2BA69517940794202531254A277C
:1038F00058F7660F771F881F20F0261737074807ED
:1039000030F4620B730B840B200D311D411DA0950B
:1039100081F7B901842F9158880F9695879508955E
:103920000E94011F880B990B08959F3F31F0915021
:1039300020F4879577956795B795880F911D969593
:10394000879597F9089591505040660F771F881F0B
:10395000D2F70895CF93DF938230910510F482E07F
:1039600090E0E0919507F091960720E030E0C0E00C
:10397000D0E0309711F14081518148175907C0F0CC
:103980004817590761F482819381209719F09B832E
:103990008A832BC0909396078093950726C02115A4
:1039A000310519F04217530718F49A01BE01DF01DF
:1039B000EF010280F381E02DDCCF2115310509F103
:1039C000281B390B2430310590F412968D919C916F
:1039D00013976115710521F0FB019383828304C065
:1039E0009093960780939507FD01329644C0FD01A0
:1039F000E20FF31F81939193225031092D933C9351
:103A00003AC02091930730919407232B41F42091E1
:103A10000F01309110013093940720939307209168
:103A20000D0130910E012115310541F42DB73EB73E
:103A30004091110150911201241B350BE091930725
:103A4000F0919407E217F307A0F42E1B3F0B281701
:103A5000390778F0AC014E5F5F4F2417350748F007
:103A60004E0F5F1F50939407409393078193919358
:103A700002C0E0E0F0E0CF01DF91CF9108950F9315
:103A80001F93CF93DF93009709F48CC0FC0132970A
:103A90001382128200919507109196070115110566
:103AA00081F420813181820F931F209193073091FF
:103AB00094072817390779F5F0939407E093930753
:103AC00071C0D80140E050E0AE17BF0750F4129625
:103AD0002D913C911397AD012115310509F1D901C3
:103AE000F3CF9D01DA013383228360817181860FD8
:103AF000971F8217930769F4EC0128813981260FFB
:103B0000371F2E5F3F4F318320838A819B819383B0
:103B10008283452B29F4F0939607E093950742C0E2
:103B20001396FC93EE931297ED01499159919E01E2
:103B3000240F351FE217F30771F480819181840F00
:103B4000951F029611969C938E9382819381139672
:103B50009C938E931297E0E0F0E0D80112968D913D
:103B60009C911397009719F0F8018C01F6CF8D9175
:103B70009C9198012E5F3F4F820F931F20919307D6
:103B8000309194072817390769F4309729F4109277
:103B900096071092950702C0138212821093940721
:103BA00000939307DF91CF911F910F910895A0E0AB
:103BB000B0E0EDEDFDE10C940820EC01009721F45C
:103BC000CB010E94AA1CB8C0FC01E60FF71F9C01A4
:103BD00022503109E217F30708F4ACC0D9010D9166
:103BE0001C91119706171707B0F00530110508F45E
:103BF0009FC0C80104978617970708F499C0025020
:103C00001109061B170B019311936D937C93CF0140
:103C10000E943F1D8DC05B01A01AB10A4C01800EAD
:103C2000911EA0919507B091960740E050E0E12CDD
:103C3000F12C109709F44AC0A815B905D1F56D907B
:103C40007C901197630182E0C80ED11CCA14DB047A
:103C500080F1A3014A195B096A0182E0C80ED11CF8
:103C60001296BC9012971396AC91B5E0CB16D10486
:103C700040F0B282A38351834083D9016D937C933A
:103C80000AC00E5F1F4FC301800F911FF90191837E
:103C90008083EB2DFA2FE114F10431F0D701139654
:103CA000FC93EE93129744C0F0939607E093950728
:103CB0003FC08D919C9111974817590708F4AC01AA
:103CC0007D0112960D90BC91A02DB3CF80919307EA
:103CD0009091940788159905E1F446175707C8F4A1
:103CE00080910D0190910E01009741F48DB79EB720
:103CF0004091110150911201841B950BE817F907AF
:103D0000C8F4F0939407E0939307F90171836083FB
:103D10000FC0CB010E94AA1C7C01009759F0A8019A
:103D2000BE010E94A61ECE010E943F1DC70104C015
:103D3000CE0102C080E090E0CDB7DEB7EEE00C949B
:103D4000242081E090E0F8940C944A20FB01DC01EF
:103D500002C001900D9241505040D8F70895FB01E8
:103D6000DC018D91019080190110D9F3990B089510
:103D7000FB01DC0101900D920020E1F708950E9403
:103D8000011F08F481E00895E89409C097FB3EF410
:103D900090958095709561957F4F8F4F9F4F992398
:103DA000A9F0F92F96E9BB279395F6958795779516
:103DB0006795B795F111F8CFFAF4BB0F11F460FFD6
:103DC0001BC06F5F7F4F8F4F9F4F16C0882311F02E
:103DD00096E911C0772321F09EE8872F762F05C042
:103DE000662371F096E8862F70E060E02AF09A95DD
:103DF000660F771F881FDAF7880F9695879597F9D2
:103E00000895990F0008550FAA0BE0E8FEEF16166B
:103E10001706E807F907C0F012161306E407F507BE
:103E200098F0621B730B840B950B39F40A2661F032
:103E3000232B242B252B21F408950A2609F4A140D5
:103E4000A6958FEF811D811D08950E94381F0C9447
:103E5000A91F0E949B1F38F00E94A21F20F09523EB
:103E600011F00C94921F0C94981F11240C94DD1FD8
:103E70000E94BA1F70F3959FC1F3950F50E0551F34
:103E8000629FF001729FBB27F00DB11D639FAA27AF
:103E9000F00DB11DAA1F649F6627B00DA11D661FFE
:103EA000829F2227B00DA11D621F739FB00DA11D1F
:103EB000621F839FA00D611D221F749F3327A00DD9
:103EC000611D231F849F600D211D822F762F6A2F75
:103ED00011249F5750409AF0F1F088234AF0EE0FDA
:103EE000FF1FBB1F661F771F881F91505040A9F707
:103EF0009E3F510580F00C94921F0C94DD1F5F3F94
:103F0000E4F3983ED4F3869577956795B795F79542
:103F1000E7959F5FC1F7FE2B880F911D96958795BA
:103F200097F9089597F99F6780E870E060E0089539
:103F30009FEF80EC089500240A94161617061806C1
:103F40000906089500240A9412161306140605069D
:103F50000895092E0394000C11F4882352F0BB0F2E
:103F600040F4BF2B11F460FF04C06F5F7F4F8F4F91
:103F70009F4F089557FD9058440F551F59F05F3FCC
:103F800071F04795880F97FB991F61F09F3F79F07B
:103F900087950895121613061406551FF2CF4695FD
:103FA000F1DF08C0161617061806991FF1CF86957F
:103FB0007105610508940895E894BB276627772763
:103FC000CB0197F90895F999FECF92BD81BDF89A7A
:103FD000992780B50895262FF999FECF1FBA92BD73
:103FE00081BD20BD0FB6F894FA9AF99A0FBE0196DA
:103FF00008950E943B20A59F900DB49F900DA49F13
:10400000800D911D112408952F923F924F925F923F
:104010006F927F928F929F92AF92BF92CF92DF92D8
:10402000EF92FF920F931F93CF93DF93CDB7DEB73D
:10403000CA1BDB0B0FB6F894DEBF0FBECDBF0994D1
:104040002A88398848885F846E847D848C849B8428
:10405000AA84B984C884DF80EE80FD800C811B8136
:10406000AA81B981CE0FD11D0FB6F894DEBF0FBE65
:10407000CDBFED010895A29FB001B39FC001A39FE2
:10408000700D811D1124911DB29F700D811D112491
:08409000911D0895F894FFCF83
:10409800FD0CFD0C297C8643D2000108E600009740
:1040A8000780002B565A5E00BC0077010100000013
:1040B80000950DFE0C2D0DDC0D5E0D3C0D500D65B3
:1040C8006D6F6E54782056332E34204469736372B2
:1040D8006574652053616D706C696E672056004F7A
:1040E80070656E456E657267794D6F6E69746F7233
:1040F8002E6F7267004C6F616465642045455052AD
:104108004F4D20524620636F6E666967203E004E11
:104118006F20454550524F4D20636F6E66696700AA
:1041280052464D3639435700204E6F64653A200099
:1041380020467265713A20003433334D687A00386E
:1041480036384D687A003931354D687A0020477223
:104158006F75703A2000504F53542E2E2E2E2E7706
:104168006169742031307300272B2B2B272074684A
:10417800656E205B456E7465725D20666F722052B5
:104188004620636F6E666967206D6F6465002B2B30
:104198002B0D0A00456E746572696E6720636F6E39
:1041A800666967206D6F64652E2E2E00435420319A
:1041B8002043616C2000435420322043616C20006E
:1041C800435420332043616C20004354203420435F
:1041D800616C2000524D5320566F6C7461676520E6
:1041E8006F6E2041432D4143202069733A207E00A1
:1041F80041432D4143206465746563746564202DD3
:10420800205265616C20506F776572206D6561730F
:1042180075726520656E61626C65640061737375A3
:104228006D696E67207077722066726F6D204143EA
:104238002D414320286A756D70657220636C6F7319
:1042480065642900555341206D6F6465206163746E
:10425800697665005663616C3A2000506861736541
:104268002053686966743A200041432D4143204E2B
:104278004F54206465746563746564202D20417013
:10428800706172656E7420507772206D6561737508
:10429800726520656E61626C656400417373756D4B
:1042A800696E672056524D533A2000417373756DFD
:1042B800696E6720706F7765722066726F6D206215
:1042C800617474202F20355620555342202D2070BC
:1042D8006F776572207361766520656E61626C65C3
:1042E80064004E4F204354277320646574656374DB
:1042F80065640043542031206465746563746564A3
:104308000043542032206465746563746564004317
:1043180054203320646574656374656400435420D5
:10432800342064657465637465640044657465630A
:104338007465642054656D702053656E736F727375
:104348003A2020004E6F2074656D70657261747537
:1043580072652073656E736F720043543120435445
:104368003220435433204354342056524D532F4265
:104378004154542050554C5345002054656D706588
:1043880072617475726520312D006374313A002CA6
:104398006374323A002C6374333A002C6374343AF1
:1043A800002C76726D733A002C70756C73653A0048
:1043B8002C74006E616E00696E66006F766600533D
:1043C8006176696E672E2E2E00446F6E652E204E24
:1043D800657720636F6E6669672073617665642010
:0A43E800746F20454550524F4D0000
:00000001FF
