:100000000C9412010C9453070C942C070C943A0195
:100010000C943A010C943A010C94050C0C943A019E
:100020000C943A010C943A010C943A010C943A0164
:100030000C943A010C943A010C943A010C943A0154
:100040000C94980C0C943A010C94090B0C94E30A50
:100050000C943A010C943A010C943A010C943A0134
:100060000C943A010C943A01010402000302048A40
:10007000050506C30B2019421E2C25802E902FAAA1
:10008000302D370038003C8F3D106F2000000000FD
:1000900000240027002A0000000000250028002B73
:1000A0000000000008000201000003040700000037
:1000B00000000000000A417661696C61626C652095
:1000C000636F6D6D616E64733A0A20203C6E6E3E04
:1000D0006920202020202D20736574206E6F6465B8
:1000E0002049447320287374616E64617264206EC9
:1000F0006F6465206964732061726520312E2E3330
:1001000030290A20203C6E3E622020202020202D15
:1001100020736574204D487A2062616E6420283413
:10012000203D203433332C2038203D203836382CE5
:100130002039203D20393135290A20203C6E6E6E51
:100140003E67202020202D20736574206E65747713
:100150006F726B2067726F7570202852464D313276
:10016000206F6E6C7920616C6C6F77732032313246
:100170002C2030203D20616E79290A202073202018
:1001800020202020202020202D20736176652063F0
:100190006F6E66696720746F20454550524F4D0A57
:1001A000202076202020202020202020202D2053B9
:1001B000686F77206669726D776172652076657207
:1001C00073696F6E0A0000000000230026002900FA
:1001D00004040404040404040202020202020303ED
:1001E00003030303010204081020408001020408F5
:1001F0001020010204081020200020555341200047
:10020000204D487A0020402000206700206900200F
:10021000005D005B656D6F6E54782046573A20563E
:100220000000B21311241FBECFEFD8E0DEBFCDBF58
:1002300012E0A0E0B1E0E6E4F3E302C005900D9225
:10024000A435B107D9F725E0A4E5B2E001C01D92BD
:10025000AC34B207E1F711E0C2E1D1E004C021976C
:10026000FE010E948114C131D107C9F70E94E20C3E
:100270000C94A1190C940000089508958627682F06
:1002800062956827062E669566956025062E66950A
:1002900060256770082E892F669507946795902DC5
:1002A000862706946795902586270895833081F0E8
:1002B00028F4813099F08230A1F008958730A9F0B8
:1002C0008830B9F08430D1F4809180008F7D03C0F4
:1002D000809180008F7780938000089584B58F7718
:1002E00002C084B58F7D84BD08958091B0008F7762
:1002F00003C08091B0008F7D8093B00008958EE49C
:1003000080937C0062E070E080E090E00E94520CFC
:1003100080917A00806480937A0080917A0086FDD3
:10032000FCCF809178002091790030E0322F222795
:10033000A901330F660B770B9A01AB01282B60E004
:1003400070E381E190E00E945314CA01B90108955D
:10035000E091E303F091E4030190F081E02D682F38
:1003600083EE93E009941F93CF93DF93C5EBD0E026
:10037000FE011491112351F01A3019F48DE00E94FE
:10038000A801812F0E94A8012196F2CFDF91CF9181
:100390001F9108958091E203843064F483B7817FD4
:1003A0008C6083BF83B7816083BF889583B78E7F5E
:1003B00083BFF0CF0895009769F0FC010190002001
:1003C000E9F73197AF01481B590BBC0183EE93E06D
:1003D0000C94B00980E090E008958F929F92AF92C4
:1003E000BF920F931F93CF93DF93CDB7DEB7A19743
:1003F0000FB6F894DEBF0FBECDBF19A2423008F48D
:100400004AE08E010F5D1F4F842E912CA12CB12C40
:10041000A50194010E943114E62FB901CA010150CF
:100420001109EA3014F4E05D01C0E95CD801EC93F5
:10043000232B242B252B61F7C8010E94DB01A196F9
:100440000FB6F894DEBF0FBECDBFDF91CF911F91E5
:100450000F91BF90AF909F908F900895CF92DF92B1
:10046000EF92FF92CF93DF936C01990FEE08FF0894
:10047000F7FE17C08DE20E94A801EC0166277727DE
:10048000CB016C197D098E099F094AE00E94ED019C
:100490008C0F9D1FDF91CF91FF90EF90DF90CF9059
:1004A00008954AE0C701B601DF91CF91FF90EF9028
:1004B000DF90CF900C94ED010C94DB012F923F92D2
:1004C0004F925F926F927F928F929F92AF92BF9264
:1004D000CF92DF92EF92FF920F931F93CF93DF9310
:1004E00000D000D0CDB7DEB79C838B830E947F0104
:1004F0006B017C010EE716E08B819C81885B9F4F2E
:100500009A8389832B803C809CE4290E311CEB81EB
:10051000FC8186890E943B0CEB81FC8197A386A31A
:10052000BC01990F880B990B0E941D184B015C01AF
:10053000EB81FC8140AC51AC62AC73ACA301920185
:100540000E94871420E030E040E85AE30E947C18C3
:100550009B01AC01C301B2010E9488149B01AC0154
:10056000EB81FC8160AF71AF82AF93AFC501B40185
:100570000E948714EB81FC8160AB71AB82AB93ABC3
:100580009B01AC010E947C18E981FA816083718330
:1005900082839383F10120813181428153810E94C2
:1005A0008814F10160837183828393830150110960
:1005B00009F0ADCF20E030EC4FEC54E40E94F4148D
:1005C0000E94A7154B015C01B601DD0C880B990B4D
:1005D0000E941D1820E030E04AE754E40E94F41421
:1005E00020E030E040E85AE30E947C18EB81FC8177
:1005F000248D358D468D578D0E947C18A501940160
:100600000E947C18EB81FC81608B718B828B938BB9
:10061000F10110821182128213820F900F900F90BD
:100620000F90DF91CF911F910F91FF90EF90DF908E
:10063000CF90BF90AF909F908F907F906F905F9082
:100640004F903F902F9008952F923F924F925F923C
:100650006F927F928F929F92AF92BF92CF92DF92D2
:10066000EF92FF920F931F93CF93DF93CDB7DEB737
:10067000A2970FB6F894DEBF0FBECDBF9AA389A391
:100680000E947F01698B7A8B8B8B9C8B0E948C0CD8
:100690004B015C0169A07AA028E5620E711CA9A13A
:1006A000BAA154968C910E943B0CF30191838083F4
:1006B000BC01990F880B990B0E941D186B017C01DE
:1006C0002DEC3CEC4CE054E40E94161887FF0BC064
:1006D00011E026E636E646EE53E4C701B6010E9475
:1006E0009C1518160CF010E00E948C0CDC01CB015C
:1006F00088199909AA09BB09813D9740A105B1054F
:1007000010F4112361F20E948C0C6D8B7E8B8F8B09
:10071000988F00E010E01A82198229A13AA1205C8A
:100720003F4F3A8F298F49A15AA14C5B5F4F5C879D
:100730004B8789A19AA1885B9F4F9C8F8B8FA9A122
:10074000BAA1A45BBF4FBE87AD87E9A1FAA1E05B68
:10075000FF4FFE8FED8F29A13AA12C5A3F4F388BC6
:100760002F8749A15AA1465A5F4F5E834D8329A026
:100770003AA05BE5250E311C89A19AA1885A9F4FAA
:1007800098A38F8F0E948C0CDC01CB012D893E89B0
:100790004F89588D821B930BA40BB50B803D97405E
:1007A000A105B10508F4DAC049895A89BA01550F83
:1007B000880B990B0E941D1820E030E04AE754E4B2
:1007C0000E94F41420E030E040E85AE30E947C18D4
:1007D0002B013C01A9A1BAA158962D913D914D91B3
:1007E0005C915B970E947C184B015C01E981FA8166
:1007F000BF0180E090E00E941B186B017C0129A0E2
:100800003AA0F4E42F0E311C9B01AC01D1016D9193
:100810007D918D919C910E94F4140E94A7159B01DB
:10082000AC01C501B4010E947C1869837A838B8373
:100830009C83E9A1FAA16487758786879787248DB1
:10084000358D468D578DC301B2010E947C182B0156
:100850003C0109A11AA1045B1F4FA7019601D80111
:100860006D917D918D919C910E94F4140E94A71529
:100870009B01AC01C301B2010E947C186D837E8391
:100880008F839887E9A1FAA1608B718B828B938B00
:10089000A3019201C501B4010E947C18A9A0BAA0CD
:1008A000F4E5AF0EB11CD5012D913D914D915C91B8
:1008B0000E947C18A70196010E94F4146B017C0130
:1008C000E9A1FAA160837183828393832D813E81A4
:1008D0004F81588569817A818B819C810E947C1827
:1008E0009B01AC01A9A1BAA114966D937D938D9340
:1008F0009C931797C701B6010E94F414E9A1FAA1CD
:100900006087718782879387D1011D921D921D9206
:100910001C921397F8011082118212821382D50162
:100920001D921D921D921C921397A2960FB6F894D9
:10093000DEBF0FBECDBFDF91CF911F910F91FF9012
:10094000EF90DF90CF90BF90AF909F908F907F906F
:100950006F905F904F903F902F900895E981FA81BA
:100960003196FA83E983E9A1FAA184A595A5A6A504
:10097000B7A580A791A7A2A7B3A784890E943B0C23
:10098000A9A1BAA195969C938E93949756968C9113
:100990000E943B0C3C01E9A1FAA197A386A324A1E4
:1009A00035A13A872987B901330F880B990B0E942B
:1009B0001D186B017C01A9A1BAA1D4968D909D90C0
:1009C000AD90BC90D797A50194010E94871420E0B8
:1009D00030E040E85AE30E947C189B01AC01C5015D
:1009E000B4010E9488149B01AC01E9A1FAA164AB97
:1009F00075AB86AB97ABC701B6010E9487144B015C
:100A00005C01A9A1BAA19C966D937D938D939C9353
:100A10009F97B301770C880B990B0E941D186B01EF
:100A20007C01E9A1FAA140AC51AC62AC73ACA3016A
:100A300092010E94871420E030E040E85AE30E94CF
:100A40007C189B01AC01C301B2010E9488149B0178
:100A5000AC01A9A1BAA1D8966D937D938D939C9377
:100A6000DB97C701B6010E9487146B017C01E9A1E5
:100A7000FAA160AB71AB82AB93ABA5019401C50148
:100A8000B4010E947C189B01AC01A98DBA8D6D93B5
:100A90007D938D939C931397EB85FC856081718189
:100AA000828193810E948814AB85BC856D937D9370
:100AB0008D939C931397A7019601C701B6010E94DD
:100AC0007C189B01AC01EB8DFC8D6083718382836C
:100AD0009383AD85BE856D917D918D919C910E9492
:100AE0008814ED85FE856083718382839383A9A139
:100AF000BAA198964D905D906D907C909B97A301C4
:100B00009201C501B4010E948714E9A1FAA120A1B4
:100B100031A142A153A10E947C189B01AC01C301E9
:100B2000B2010E948814A9A1BAA1DC966D937D93AD
:100B30008D939C93DF97A70196010E947C189B01DF
:100B4000AC01ED8DFE8D6083718382839383AF85CD
:100B5000B8896D917D918D919C910E948814EF854B
:100B6000F8896083718382839383D1018C91ED81B5
:100B7000FE818083AF8DB8A18D919C91E985FA8526
:100B80008E179F0724F4E1E0D101EC9302C0D1015C
:100B90001C92E981FA81319729F4D1018C91ED8180
:100BA000FE818083AD81BE819C91F1018081981787
:100BB00011F00F5F1F4F0E31110508F0F5CDE2CD9A
:100BC000CF93DF930E94DB01EC0182E092E00E9470
:100BD000DB018C0F9D1FDF91CF9108950F931F9321
:100BE000CF93DF938C01C0E0D0E0F801EC0FFD1F44
:100BF0006491662371F0E091E303F091E4030190C6
:100C0000F081E02D83EE93E00995892B11F0219678
:100C1000ECCFCE01DF91CF911F910F9108954F92AC
:100C20005F926F927F928F929F92AF92BF92CF927C
:100C3000DF92EF92FF926B017C01B42E9B01AC011D
:100C40000E94E715882319F08DE192E027C0260164
:100C50003701E89477F82FEF3FEF4FE75FE7C301E5
:100C6000B2010E94E71581110DC02FEF3FEF4FE752
:100C70005FE7C301B2010E94161818161CF481E246
:100C800092E00CC02FEF3FEF4FE75FE4C701B601E2
:100C90000E949C15181684F485E292E0FF90EF9074
:100CA000DF90CF90BF90AF909F908F907F906F908C
:100CB0005F904F900C94DB012FEF3FEF4FE75FEC1D
:100CC000C701B6010E94161887FDE6CF20E030E08C
:100CD000A901C701B6010E94161887FF09C08DE25D
:100CE0000E94A8014C01F7FAF094F7F8F09402C0C2
:100CF000812C912CA12C60E070E080E09FE3AB148C
:100D000041F020E030E040E251E40E94F414A3946A
:100D1000F6CF9B01AC01C701B6010E9488142B01DC
:100D20003C010E946D156B017C010E941B189B0108
:100D3000AC01C301B2010E9487142B013C014AE0BF
:100D4000C701B6010E94ED017C01E80CF91CBB2033
:100D500029F08EE20E94A801E80EF91EDB2CDD20AE
:100D600021F120E030E040E251E4C301B2010E94F1
:100D70007C182B013C010E946D154B01A12CB12C5C
:100D80004AE0C501B4010E94ED01E80EF91EC5015B
:100D9000B4010E941B189B01AC01C301B2010E9467
:100DA00087142B013C01DA94DACFC701FF90EF9052
:100DB000DF90CF90BF90AF909F908F907F906F907B
:100DC0005F904F900895CF93DF9342E00E940F060B
:100DD000EC0182E092E00E94DB018C0F9D1FDF910D
:100DE000CF9108950F931F930E948C0C6093EB0397
:100DF0007093EC038093ED039093EE03E091E30393
:100E0000F091E4030284F385E02D83EE93E00995ED
:100E100097FF1FC00E948C0C0091EB031091EC0314
:100E20002091ED033091EE03DC01CB01801B910B8F
:100E3000A20BB30B0091E7031091E8032091E903A3
:100E40003091EA0380179107A207B307B8F28FEF3A
:100E50009FEF1F910F9108951F920F920FB60F925F
:100E600011242F933F934F935F936F937F938F93AF
:100E70009F93AF93BF93EF93FF93E0910B01F0919A
:100E80000C010995FF91EF91BF91AF919F918F91C7
:100E90007F916F915F914F913F912F910F900FBE76
:100EA0000F901F9018951F920F920FB60F9211245A
:100EB0002F933F934F935F936F937F938F939F9362
:100EC000AF93BF93EF93FF93E0910901F0910A0173
:100ED0000995FF91EF91BF91AF919F918F917F9174
:100EE0006F915F914F913F912F910F900FBE0F9097
:100EF0001F901895E8982A988EBD0DB407FEFDCF77
:100F00008EB56EBD0DB407FEFDCF8EB52A9AE89A58
:100F1000089560E00C947A07CF93C82F81E00E9477
:100F20008907837E682F6C2B81E8CF910C947A0718
:100F3000CF938091E203853009F054C060E485EAE4
:100F40000E947A0784E20E94890780938104789442
:100F5000C8E488E20E9489078075D9F380918604ED
:100F600081110FC0E0918204F09183048091860486
:100F700091E0980F909386049091D703E80FF11DAC
:100F8000908380E00E948907E0918204F0918304BD
:100F90009091860421E0290F20938604E90FF11D2A
:100FA0008083682F80918404909185040E943E0183
:100FB000909385048093840480918B04833410F093
:100FC000C093860480918B042091860490E004965F
:100FD00030E082179307ACF080918604883408F4DF
:100FE000B8CF0FC088E20E94890783FF0AC084E05F
:100FF0008093E2030E948C0760E885EACF910C940D
:101000007A07CF91089588E20E948907807521F0C0
:1010100080E00E948907F7CF08950F931F93CF9325
:10102000DF9314E0C9E8D4E005E08091E203853065
:1010300009F076C080918604811172C084E08093AB
:10104000E2030E948C078AE080938B04E8EDF3E0D2
:1010500080E090E0DC01A457BB4F21912C930196D6
:101060008A309105B9F78091D60380938A04609104
:10107000D7038FEF9FEF0E943E01909385048093EA
:10108000840490918B048EEF891B8093E2030E946D
:1010900003088CE00E948C0760E085EA0E947A07D2
:1010A0008091E20383300CF0A6C088E20E94890799
:1010B00087FDF6CF8091E20387FF1BC090918B04E0
:1010C0008091E203E0918204F0918304E90FF11D25
:1010D000E80FF11D87FDFA95C3816C2F8091840480
:1010E000909185040E943E0190938504809384042E
:1010F0000DC08091E203882329F0813031F4C09142
:10110000850404C0C091840401C0CAEA6C2F80E841
:101110000E947A078091E2038F5F8093E203C0CF41
:101120008091E203843011F510928B0410928604B2
:101130006091D7038FEF9FEF0E943E01909385044B
:1011400080938404D0938304C09382040093E203C9
:101150000E94030860E885EA0E947A0780E10E9405
:101160008C0762E08EE90E947A0710C0853071F426
:1011700080918B042091860490E0049630E08217E1
:1011800093077CF080918604883458F48FEF9FEFAA
:1011900090938804809387048091870490918804B9
:1011A00044CF1093E20384E00E948C0780918B046B
:1011B000833418F081E090E0EBCF8091840490912B
:1011C0008504892BB9F780918A0486FF11C030917C
:1011D000D6033F3169F020918A042F7181E090E0BD
:1011E000231302C080E090E0919581959109D0CFC2
:1011F00080E090E0CDCFDF91CF911F910F910895C6
:1012000083FF02C098E2892787FD06C08064909121
:1012100060009093800402C08091800494B7977F0F
:1012200094BFF894909160009861909360008093CF
:10123000600078940895CF93DF93282F30E0F90170
:10124000EF55FF4F8491F901EC51FE4FD491F90114
:10125000E053FE4FC491CC2391F081110E945601BE
:10126000EC2FF0E0EE0FFF1FEA53FE4FA591B49173
:10127000EC91ED2381E090E021F480E002C080E079
:1012800090E0DF91CF9108951F93CF93DF93282FA4
:1012900030E0F901EF55FF4F8491F901EC51FE4F19
:1012A000D491F901E053FE4FC491CC23C9F0162F1D
:1012B00081110E945601EC2FF0E0EE0FFF1FE9565E
:1012C000FF4FA591B4918FB7F894111105C09C916F
:1012D000ED2FE095E92302C0EC91ED2BEC938FBF4D
:1012E000DF91CF911F910895CF93DF9390E0FC01A0
:1012F000EC51FE4F2491FC01E053FE4F8491882372
:1013000061F190E0880F991FFC01E357FF4FC591F1
:10131000D491FC01E956FF4FA591B491611109C028
:101320009FB7F8948881209582238883EC912E239F
:101330000BC0623061F49FB7F8943881822F80959A
:1013400083238883EC912E2B2C939FBF06C08FB7ED
:10135000F894E8812E2B28838FBFDF91CF910895D9
:10136000CF92DF92EF92FF920F931F93CF93DF9371
:101370006C017A018B01C0E0D0E0CE15DF0589F069
:10138000D8016D918D01D601ED91FC910190F08114
:10139000E02DC6010995892B11F47E0102C021962A
:1013A000ECCFC701DF91CF911F910F91FF90EF908C
:1013B000DF90CF900895089580E090E00895FC01BB
:1013C000538D448D252F30E0842F90E0821B930BAA
:1013D000541710F0CF96089501970895FC01918D50
:1013E000828D981761F0828DDF01A80FB11D5D9687
:1013F0008C91928D9F5F9F73928F90E008958FEFF5
:101400009FEF0895FC01918D828D981731F0828DA8
:10141000E80FF11D858D90E008958FEF9FEF0895FF
:10142000FC01918D228D892F90E0805C9F4F821B63
:1014300091098F739927089583EE93E00E94100A13
:1014400021E0892B09F420E0822F0895FC01848D8E
:10145000DF01A80FB11DA35ABF4F2C91848D90E0DE
:1014600001968F739927848FA689B7892C93A089B9
:10147000B1898C9180648C93938D848D981306C070
:101480000288F389E02D80818F7D80830895EF921B
:10149000FF920F931F93CF93DF93EC0181E0888F2E
:1014A0009B8D8C8D981305C0E889F989808185FD15
:1014B00024C0F62E0B8D10E00F5F1F4F0F73112706
:1014C000E02E8C8DE8120CC00FB607FCFACFE8892D
:1014D000F989808185FFF5CFCE010E94260AF1CFE0
:1014E0008B8DFE01E80FF11DE35AFF4FF0820B8F49
:1014F000EA89FB898081806207C0EE89FF89608369
:10150000E889F98980818064808381E090E0DF91BF
:10151000CF911F910F91FF90EF900895CF93DF939C
:10152000EC01888D8823C9F0EA89FB89808185FDDB
:1015300005C0A889B9898C9186FD0FC00FB607FC3C
:10154000F5CF808185FFF2CFA889B9898C9185FF7D
:10155000EDCFCE010E94260AE7CFDF91CF9108950B
:1015600080E090E0892B29F00E941C0A81110C94E4
:10157000000008950E94F8170F931F93CF93DF93F5
:10158000EC0188819981009729F02A813B812617F7
:10159000370788F48B016F5F7F4F0E942E170097EB
:1015A00061F0998388831B830A832C813D81232BDF
:1015B00011F4FC01108281E001C080E0DF91CF9145
:1015C0001F910F9108951F920F920FB60F92112441
:1015D0002F933F934F935F936F937F938F939F933B
:1015E000AF93BF93EF93FF9383EE93E00E94260A9D
:1015F000FF91EF91BF91AF919F918F917F916F91EB
:101600005F914F913F912F910F900FBE0F901F90C0
:1016100018951F920F920FB60F9211242F938F934C
:101620009F93EF93FF93E091F303F091F403808194
:10163000E091F903F091FA0382FD12C0908180914C
:10164000FC038F5F8F732091FD03821751F0E091AF
:10165000FC03F0E0ED51FC4F958F8093FC0301C03B
:101660008081FF91EF919F918F912F910F900FBEED
:101670000F901F901895CF93DF9390ED980F9A30AD
:1016800060F490913E05990F292F220F220F920F9F
:101690009053890F80933E05B5C081320CF4B0C0E1
:1016A000893619F16CF4823639F1873609F060C059
:1016B00080913E0590E090930501809304015AC00B
:1016C000833781F1863709F053C083E192E00E94AD
:1016D000EE0542E067E676E68EE191E40E940F06B1
:1016E00081E192E00E94EE0545C080913E0588238D
:1016F00019F0809307013EC080913E05843031F09F
:10170000883031F0893031F080E005C081E003C0DD
:1017100082E001C083E080933E05882359F18093E5
:10172000060128C089E292E00E94E005C0E0D0E016
:1017300060E0CE010E9442192196C11584E0D807CD
:10174000B9F76091070180E090E00E944219609132
:10175000060181E090E00E9442196091040182E05C
:1017600090E00E94421983E392E00E94E00502C0EB
:101770000E94B3018FE092E00E94EE058CE092E0BF
:101780000E94EE05809107018F7190E00E942E0269
:1017900089E092E00E94EE0580910401909105019C
:1017A0000E942E0285E092E00E94EE0580910601E3
:1017B000813039F0823041F0833049F080E090E0B0
:1017C00008C081EB91E005C084E693E002C083E9A4
:1017D00093E00E942E0280E092E00E94EE058AEFE4
:1017E00091E00E94EE058091540290E00E942E024A
:1017F00088EF91E00E94EE0582E092E00E94DB011A
:1018000010923E05DF91CF9108951F920F920FB66F
:101810000F9211248F93809155028F5F8093550210
:101820008F910F900FBE0F901F9018953FB7F894AF
:101830008091440590914505A0914605B0914705DA
:1018400026B5A89B05C02F3F19F00196A11DB11D1B
:101850003FBFBA2FA92F982F8827820F911DA11D56
:10186000B11DBC01CD0142E0660F771F881F991F93
:101870004A95D1F708958E3008F08E5087708064B5
:1018800080937C0080917A00806480937A008091BC
:101890007A0086FDFCCF809178002091790090E05D
:1018A000922B08958F929F92AF92BF92CF92DF9228
:1018B000EF92FF926B017C010E94160C4B015C01C0
:1018C000C114D104E104F104F1F00E94160CDC0112
:1018D000CB0188199909AA09BB09883E9340A10543
:1018E000B10570F321E0C21AD108E108F10888EED1
:1018F000880E83E0981EA11CB11CC114D104E10420
:10190000F10419F7DDCFFF90EF90DF90CF90BF90FB
:10191000AF909F908F9008952FB7F89460913F05F6
:101920007091400580914105909142052FBF089527
:101930001F920F920FB60F9211242F933F938F9304
:101940009F93AF93BF9380913F0590914005A091E5
:101950004105B09142053091430523E0230F2D3717
:1019600020F40196A11DB11D05C026E8230F0296A3
:10197000A11DB11D2093430580933F059093400521
:10198000A0934105B093420580914405909145058F
:10199000A0914605B09147050196A11DB11D809308
:1019A000440590934505A0934605B0934705BF9124
:1019B000AF919F918F913F912F910F900FBE0F90FC
:1019C0001F901895CF93DF93CDB7DEB728970FB64A
:1019D000F894DEBF0FBECDBF789484B5826084BD1D
:1019E00084B5816084BD85B5826085BD85B5816023
:1019F00085BD80916E00816080936E0010928100A1
:101A0000809181008260809381008091810081605B
:101A1000809381008091800081608093800080911C
:101A2000B10084608093B1008091B00081608093A8
:101A3000B00080917A00846080937A0080917A006F
:101A4000826080937A0080917A00816080937A002E
:101A500080917A00806880937A001092C10061E0E2
:101A600086E00E94740961E083E10E94740962E0EB
:101A700083E00E94740961E086E00E94440962E00C
:101A800088E00E94740962E089E00E947409E09194
:101A9000F303F091F40382E08083E091EF03F0918F
:101AA000F0031082E091F103F091F20380E1808372
:101AB0001092FB03E091F703F091F80386E0808336
:101AC000E091F503F091F603808180618083E091DD
:101AD000F503F091F603808188608083E091F5033F
:101AE000F091F603808180688083E091F503F091A6
:101AF000F60380818F7D808389E291E00E945C0201
:101B000067E676E68EE191E40E94E30680E591E0E7
:101B10000E94E0058FE991E00E94E00580E090E0FE
:101B20000E943A198F3F21F08093070111E001C014
:101B300010E081E090E00E943A198F3F19F0809305
:101B400006011F5F82E090E00E943A198F3F31F05A
:101B500090E0909305018093040102C0112319F0D5
:101B600086E691E002C080E891E00E94E00581E90C
:101B700091E00E945C0288E00E941B09892B29F4F5
:101B80008091070181508093070189E991E00E94CB
:101B90005C026091070170E080E090E04AE00E9402
:101BA000ED0181EA91E00E945C02809106018130A2
:101BB00021F489EA91E00E945C0280910601823062
:101BC00021F480EB91E00E945C0280910601833059
:101BD00021F487EB91E00E945C028EEB91E00E9481
:101BE0005C02C0900401D09005010D2C000CEE08A1
:101BF000FF08F7FE0CC08DE20E94A8016627772738
:101C0000CB016C197D098E099F094AE003C04AE0A7
:101C1000C701B6010E94ED0182E092E00E94DB0163
:101C20008FE991E00E94E00587EC91E00E94E005D9
:101C300089ED91E00E94E00589E00E941B09892B53
:101C400019F481E08093540280915402882379F042
:101C500080E090E0A2E0B3E4809300019093010162
:101C6000A0930201B093030188E7809308016AE022
:101C700070E080E090E00E94520C00910401F0902E
:101C8000060110910701EFEFEF0DE33028F4F0E0CB
:101C9000ED5EFE4FA08101C0A0E0B0E020E836E993
:101CA00048E950E00E9450192B013C01AF2DB0E0F3
:101CB00020E039E04DE350E00E945019DC01CB01F7
:101CC000840D951DA61DB71DBC01CD01E2E0660F78
:101CD000771F881F991FEA95D1F729E03DE340E07F
:101CE00050E00E943114DA01C901F6E0880F991F13
:101CF000AA1FBB1FFA95D1F7809356029093570203
:101D0000A0935802B09359020093D703812F8F718B
:101D10008093D60364E170E080E090E00E94520C72
:101D20008091D603882369F088E997E090930A01AF
:101D30008093090180916900836080936900E89A2B
:101D400007C0E8988DE391E090930A018093090120
:101D50002A9A229A2A9A84B18C6284B980E58CBD31
:101D60008DB581608DBD6AEA8FEA0E947A078FE2A5
:101D70000E9489078A3AB9F765E58FEA0E947A07D7
:101D80008FE20E9489078535B9F778E6E72E70E083
:101D9000F72EF7018491882349F031966491806889
:101DA0000E947A07F2E0EF0EF11CF3CF6091D703A7
:101DB00081EB0E947A07C0905602D0905702E090C3
:101DC0005802F0905902B7018827992787E80E94A6
:101DD0007A0799278F2D7E2D6D2D88E80E947A072E
:101DE0006C2D89E80E947A0784E08093E2031093C7
:101DF0005A020AE010E01093D9030093D8030E941E
:101E00000D0864E670E080E090E00E94520C015002
:101E1000110988F70E94CA011092D9031092D803C1
:101E200081E00E943B0C181619064CF481E0809367
:101E3000D00380915C028F5F80935C0202C010929D
:101E4000D00382E00E943B0C181619064CF481E086
:101E50008093730380915C028F5F80935C0202C069
:101E60001092730383E00E943B0C181619064CF481
:101E700081E08093160380915C028F5F80935C0207
:101E800002C01092160384E00E943B0C181619063B
:101E90004CF481E08093B90280915C028F5F809363
:101EA0005C0202C01092B90280915C02811103C0F1
:101EB00081E08093D0030E948C0C6093D2037093D6
:101EC000D3038093D4039093D5030E948C0C00918C
:101ED000D2031091D3032091D4033091D503005F36
:101EE000184D2F4F3F4F601771078207930708F077
:101EF00070C083EE93E00E94100A892B31F31A829E
:101F000019821C821B821E821D8260E070E0CE015D
:101F100001960E94BC0A29813A8181110DC02115C8
:101F2000310519F0C9010E9496161A8219821E8283
:101F30001D821C821B8220C01E821D8264E072E012
:101F4000C9010E940F1818C08F8318860F5F1F4F9A
:101F5000B801CE0101960E94BC0A882369F029814C
:101F60003A818D819E81BE01695F7F4F820F931FF1
:101F70000E940F181E830D830E94F2060D811E81A0
:101F800097FFE2CFE980FA80012B41F06FEF71E01B
:101F9000C7010E94061811E0892B09F010E0C70163
:101FA0000E949616112309F490CF85E092E00E94DA
:101FB000E0050E94B30186E70E943B0B83EE93E0AD
:101FC0000E94100A892BD1F383EE93E00E94EE0960
:101FD000F3CF60E086E00E94440904EF16E0C12CD4
:101FE000D12C760180E00E943B0CDC01B2509D01B7
:101FF0000E947214C60ED71EE81EF91E0150110968
:1020000089F7C701B6010E941B1820E030E84EEDA9
:1020100054E40E94F4140E94A7156B017C0123E391
:1020200033E343E55BE3609100017091010180912E
:102030000201909103010E947C189B01AC01C70131
:10204000B6010E947C1820E030E044EB52E40E948C
:102050009C15181624F481E08093D10302C01092DD
:10206000D103F090D103FF20D1F00AE010E061E04D
:1020700086E00E94440968EC70E080E090E00E94F5
:10208000520C60E086E00E9444096CE271E080E05E
:1020900090E00E94520C0150110949F714C068EEFB
:1020A00073E080E090E00E94520C61E086E00E94C4
:1020B000440960ED77E080E090E00E94520C60E01F
:1020C00086E00E94440910925B0283EE93E00E9436
:1020D0008E0AE091F503F091F60380818F7E808374
:1020E000E091F503F091F6038081877F8083E09192
:1020F000F503F091F60380818F778083E091F503FB
:10210000F091F60380818F7D80838091FD03809321
:10211000FC033091D0033323F1F081E090E0909301
:102120008B0380938A038DEC9CECA5EBB2E4809347
:10213000900390939103A0939203B093930380E054
:1021400090E0A0E0B4E48093AC039093AD03A0933F
:10215000AE03B093AF03209173032223F1F082E02A
:1021600090E090932E0380932D038DEC9CECA5EBD7
:10217000B2E48093330390933403A0933503B09378
:10218000360380E090E0A0E0B4E480934F039093A6
:102190005003A0935103B0935203909116039923D7
:1021A000F1F043E050E05093D1024093D0024DEC67
:1021B0005CEC65EB72E44093D6025093D7026093D7
:1021C000D8027093D90240E050E060E074E440939C
:1021D000F2025093F3026093F4027093F50280913F
:1021E000B9028823F1F044E050E050937402409328
:1021F000730249E25CE565E871E44093790250932B
:102200007A0260937B0270937C0240E050E060E0D1
:1022100074E44093950250939602609397027093F2
:102220009802FF2009F4B8C0332361F14091000106
:102230005091010160910201709103011092890394
:102240001092880340938C0350938D0360938E0308
:1022500070938F034AE959E969ED7FE34093940352
:1022600050939503609396037093970340E050E07A
:1022700060E074E44093A8035093A9036093AA0319
:102280007093AB03222361F1409100015091010151
:10229000609102017091030110922C0310922B03A4
:1022A00040932F03509330036093310370933203B4
:1022B0004AE959E969ED7FE34093370350933803C6
:1022C0006093390370933A0340E050E060E074E4B7
:1022D00040934B0350934C0360934D0370934E0314
:1022E000992361F140910001509101016091020137
:1022F000709103011092CF021092CE024093D2024D
:102300005093D3026093D4027093D5024AE959E9FD
:1023100069ED7FE34093DA025093DB026093DC02C5
:102320007093DD0240E050E060E074E44093EE0220
:102330005093EF026093F0027093F102882361F1F1
:102340008091000190910101A0910201B0910301DF
:10235000109272021092710280937502909376022D
:10236000A0937702B09378028AE999E9A9EDBFE3D7
:1023700080937D0290937E02A0937F02B0938002AF
:1023800080E090E0A0E0B4E4809391029093920208
:10239000A0939302B09394023CEA432E36E2532E6C
:1023A000612C712C48E0242E312C0E948C0C6B0186
:1023B0007C016093D2037093D3038093D4039093F2
:1023C000D5031091D103112351F068EC70E080E047
:1023D00090E00E94520C1092E1031092E003809171
:1023E000D003882309F440C084E793E0112329F146
:1023F0000E942403609174037091750380917603A9
:10240000909177030E9466157093D9036093D80367
:1024100020E030E048EC52E4609180037091810349
:1024200080918203909183030E947C180E9466151C
:102430007093E1036093E00317C00E945E024B01BA
:102440005C016091080170E080E090E00E941D183E
:102450009B01AC01C501B4010E947C180E94661565
:102460007093D9036093D80380917303882309F490
:1024700040C087E193E0112329F10E942403609179
:102480001703709118038091190390911A030E9409
:1024900066157093DB036093DA0320E030E048ECCC
:1024A00052E460912303709124038091250390915D
:1024B00026030E947C180E9466157093E1036093C6
:1024C000E00317C00E945E024B015C0160910801AD
:1024D00070E080E090E00E941D189B01AC01C501F6
:1024E000B4010E947C180E9466157093DB03609310
:1024F000DA0380911603882309F440C08AEB92E046
:10250000112329F10E9424036091BA027091BB0249
:102510008091BC029091BD020E9466157093DD030C
:102520006093DC0320E030E048EC52E46091C602A6
:102530007091C7028091C8029091C9020E947C18D4
:102540000E9466157093E1036093E00317C00E9438
:102550005E024B015C016091080170E080E090E058
:102560000E941D189B01AC01C501B4010E947C189A
:102570000E9466157093DD036093DC038091B902BD
:10258000882309F441C08DE592E0112329F10E94CE
:10259000240360915D0270915E0280915F029091D0
:1025A00060020E9466157093DF036093DE0320E0F3
:1025B00030E048EC52E46091690270916A028091C7
:1025C0006B0290916C020E947C180E9466157093B9
:1025D000E1036093E003B7C00E945E024B015C011F
:1025E0006091080170E080E090E00E941D189B015E
:1025F000AC01C501B4010E947C180E94661570935D
:10260000DF036093DE0302C011119DC087E00E94CA
:102610003B0CBC01990F880B990B0E941D182BE2F3
:102620003BE64EE25FE30E947C180E9466157093C1
:10263000E1036093E00384E00E948C0704E00093D0
:10264000E2030E940D080E94CA01111105C080E03A
:102650000E948C070093E2030E948C0CDC01CB01EA
:102660008C199D09AE09BF09A3019201281B390BE2
:102670004A0B5B0BCA01B901112319F00E94520CDD
:102680005FC08901045F1140780140E1E416F10464
:1026900008F440C0C701D12C8032910538F0D394A2
:1026A00039E0D31619F096958795F6CF109255021A
:1026B0008D2D0E94000990917A0080917A008F7789
:1026C00080937A0083B7817F846083BFF89483B757
:1026D000816083BF85B7806685BF85B78F79806449
:1026E00085BF7894889583B78E7F83BF90937A0057
:1026F0008FEF0E940009C10102C0880F991FDA9470
:10270000E2F7E81AF90A20915502222319F0E81A93
:10271000F90ABBCF80913F0590914005A0914105FA
:10272000B09142050E191F09800F911FA11DB11D07
:1027300080933F0590934005A0934105B0934205D7
:102740000E94B00A32CE61E086E00E94440968EC43
:1027500070E080E090E00E94520C60E086E00E9411
:10276000440969CF1092E6031092E50388EE93E0E6
:10277000A0E0B0E08093E7039093E803A093E9031F
:10278000B093EA038BE191E09093E4038093E30339
:1027900085EC90E09093F0038093EF0384EC90E05D
:1027A0009093F2038093F10380EC90E09093F40314
:1027B0008093F30381EC90E09093F6038093F5030C
:1027C00082EC90E09093F8038093F70386EC90E01E
:1027D0009093FA038093F9031092FC031092FD0387
:1027E0001092FE031092FF0360E085E00E947409DE
:1027F000E9EEF1E0E491E093E404E5EDF1E0E49149
:10280000F0E0EE0FFF1FEA53FE4F859194919093F5
:10281000E6048093E5041092EF041092F104109204
:10282000F004EFEEF4E0129284E0E73EF807D9F707
:102830008CE391E09093E3048093E20484EE94E0CF
:102840009093D7048093D6041092D5041092D104AB
:1028500089E08093D20481E08093D3048093D404F0
:102860000895A1E21A2EAA1BBB1BFD010DC0AA1FD1
:10287000BB1FEE1FFF1FA217B307E407F50720F0E9
:10288000A21BB30BE40BF50B661F771F881F991F64
:102890001A9469F760957095809590959B01AC01AD
:1028A000BD01CF010895052E97FB1EF400940E94F0
:1028B0006A1457FD07D00E94311407FC03D04EF470
:1028C0000C946A1450954095309521953F4F4F4F89
:1028D0005F4F089590958095709561957F4F8F4FCC
:1028E0009F4F08950E949219332312F48A1B9B0B69
:1028F0000C947C140E949219B7FF0895821B930BCD
:102900000895EE0FFF1F0590F491E02D09945058A3
:10291000BB27AA270E949F140C9400190E94F2184A
:1029200038F00E94F91820F039F49F3F19F426F48A
:102930000C94EF180EF4E095E7FB0C94E918E92FDE
:102940000E94111958F3BA17620773078407950795
:1029500020F079F4A6F50C9433190EF4E0950B2EC3
:10296000BA2FA02D0B01B90190010C01CA01A001E1
:102970001124FF27591B99F0593F50F4503E68F13C
:102980001A16F040A22F232F342F4427585FF3CF7D
:10299000469537952795A795F0405395C9F77EF44E
:1029A0001F16BA0B620B730B840BBAF09150A1F097
:1029B000FF0FBB1F661F771F881FC2F70EC0BA0F1D
:1029C000621F731F841F48F4879577956795B795A5
:1029D000F7959E3F08F0B0CF9395880F08F09927A0
:1029E000EE0F9795879508950E9408150C9400198D
:1029F0000E94F91858F00E94F21840F029F45F3F45
:102A000029F00C94E91851110C9434190C94EF1816
:102A10000E94111968F39923B1F3552391F3951B83
:102A2000550BBB27AA2762177307840738F09F5FEF
:102A30005F4F220F331F441FAA1FA9F335D00E2E5C
:102A40003AF0E0E832D091505040E695001CCAF7C9
:102A50002BD0FE2F29D0660F771F881FBB1F26178C
:102A600037074807AB07B0E809F0BB0B802DBF0163
:102A7000FF2793585F4F3AF09E3F510578F00C9432
:102A8000E9180C9434195F3FE4F3983ED4F386952B
:102A900077956795B795F7959F5FC9F7880F911D53
:102AA0009695879597F90895E1E0660F771F881F3F
:102AB000BB1F621773078407BA0720F0621B730BF2
:102AC000840BBA0BEE1F88F7E09508950E946D15F0
:102AD0006894B1110C94341908950E94191988F062
:102AE0009F5798F0B92F9927B751B0F0E1F0660FD2
:102AF000771F881F991F1AF0BA95C9F714C0B13013
:102B000091F00E943319B1E008950C943319672FA6
:102B1000782F8827B85F39F0B93FCCF38695779541
:102B20006795B395D9F73EF490958095709561952A
:102B30007F4F8F4F9F4F08950E94581808F48FEFD2
:102B4000089519F416F40C94EF180C94EC150E94E7
:102B50001919B8F39923C9F3B6F39F57550B87FF9B
:102B60000E94FA150024A0E640EA9001805856958C
:102B7000979528F4805C660F771F881F20F0261732
:102B80003707480730F4621B730B840B2029312967
:102B90004A2BA69517940794202531254A2758F7E4
:102BA000660F771F881F20F026173707480730F475
:102BB000620B730B840B200D311D411DA09581F715
:102BC000B901842F9158880F9695879508950E9492
:102BD0005818880B990B08959F3F31F0915020F4BD
:102BE000879577956795B795880F911D96958795E9
:102BF00097F9089591505040660F771F881FD2F7BC
:102C00000895CF93DF938230910510F482E090E035
:102C1000E0914A05F0914B0520E030E0C0E0D0E0C3
:102C2000309711F14081518148175907C0F048177A
:102C3000590761F482819381209719F09B838A83DD
:102C40002BC090934B0580934A0526C02115310572
:102C500019F04217530718F49A01BE01DF01EF0182
:102C60000280F381E02DDCCF2115310509F1281B0D
:102C7000390B2430310590F412968D919C91139765
:102C80006115710521F0FB019383828304C0909349
:102C90004B0580934A05FD01329644C0FD01E20FC9
:102CA000F31F81939193225031092D933C933AC0A5
:102CB0002091480530914905232B41F420910F01C3
:102CC00030911001309349052093480520910D0162
:102CD00030910E012115310541F42DB73EB74091D9
:102CE000110150911201241B350BE0914805F09120
:102CF0004905E217F307A0F42E1B3F0B28173907ED
:102D000078F0AC014E5F5F4F2417350748F04E0F47
:102D10005F1F50934905409348058193919302C0EA
:102D2000E0E0F0E0CF01DF91CF9108950F931F9382
:102D3000CF93DF93009709F48CC0FC013297138284
:102D4000128200914A0510914B050115110581F47D
:102D500020813181820F931F2091480530914905D0
:102D60002817390779F5F0934905E093480571C0B4
:102D7000D80140E050E0AE17BF0750F412962D91F5
:102D80003C911397AD012115310509F1D901F3CF1C
:102D90009D01DA013383228360817181860F971F41
:102DA0008217930769F4EC0128813981260F371FB8
:102DB0002E5F3F4F318320838A819B81938382835F
:102DC000452B29F4F0934B05E0934A0542C0139636
:102DD000FC93EE931297ED01499159919E01240FB6
:102DE000351FE217F30771F480819181840F951FDD
:102DF000029611969C938E938281938113969C9355
:102E00008E931297E0E0F0E0D80112968D919C919C
:102E10001397009719F0F8018C01F6CF8D919C91D2
:102E200098012E5F3F4F820F931F209148053091EC
:102E300049052817390769F4309729F410924B0592
:102E400010924A0502C01382128210934905009322
:102E50004805DF91CF911F910F910895A0E0B0E058
:102E6000E4E3F7E10C945F19EC01009721F4CB0146
:102E70000E940116B8C0FC01E60FF71F9C0122500A
:102E80003109E217F30708F4ACC0D9010D911C9188
:102E9000119706171707B0F00530110508F49FC009
:102EA000C80104978617970708F499C002501109C2
:102EB000061B170B019311936D937C93CF010E9416
:102EC00096168DC05B01A01AB10A4C01800E911EAE
:102ED000A0914A05B0914B0540E050E0E12CF12C67
:102EE000109709F44AC0A815B905D1F56D907C90EA
:102EF0001197630182E0C80ED11CCA14DB0480F173
:102F0000A3014A195B096A0182E0C80ED11C12961E
:102F1000BC9012971396AC91B5E0CB16D10440F05B
:102F2000B282A38351834083D9016D937C930AC0FD
:102F30000E5F1F4FC301800F911FF90191838083A2
:102F4000EB2DFA2FE114F10431F0D7011396FC9325
:102F5000EE93129744C0F0934B05E0934A053FC0AF
:102F60008D919C9111974817590708F4AC017D0188
:102F700012960D90BC91A02DB3CF809148059091F1
:102F8000490588159905E1F446175707C8F480915B
:102F90000D0190910E01009741F48DB79EB74091BD
:102FA000110150911201841B950BE817F907C8F421
:102FB000F0934905E0934805F901718360830FC0E0
:102FC000CB010E9401167C01009759F0A801BE01B7
:102FD0000E94FD17CE010E949616C70104C0CE01C3
:102FE00002C080E090E0CDB7DEB7EEE00C947B1934
:102FF00081E090E0F8940C94A119FB01DC0102C07F
:1030000001900D9241505040D8F70895FB01DC012A
:103010008D91019080190110D9F3990B0895FB014E
:10302000DC0101900D920020E1F708950E945818EC
:1030300008F481E00895E89409C097FB3EF4909568
:103040008095709561957F4F8F4F9F4F9923A9F081
:10305000F92F96E9BB279395F69587957795679510
:10306000B795F111F8CFFAF4BB0F11F460FF1BC054
:103070006F5F7F4F8F4F9F4F16C0882311F096E9E7
:1030800011C0772321F09EE8872F762F05C0662395
:1030900071F096E8862F70E060E02AF09A95660F4E
:1030A000771F881FDAF7880F9695879597F9089507
:1030B000990F0008550FAA0BE0E8FEEF1616170649
:1030C000E807F907C0F012161306E407F50798F0B1
:1030D000621B730B840B950B39F40A2661F0232BCA
:1030E000242B252B21F408950A2609F4A140A69546
:1030F0008FEF811D811D08950E948F180C94001977
:103100000E94F21838F00E94F91820F0952311F06F
:103110000C94E9180C94EF1811240C9434190E94A3
:10312000111970F3959FC1F3950F50E0551F629FE1
:10313000F001729FBB27F00DB11D639FAA27F00D10
:10314000B11DAA1F649F6627B00DA11D661F829F37
:103150002227B00DA11D621F739FB00DA11D621F1C
:10316000839FA00D611D221F749F3327A00D611D39
:10317000231F849F600D211D822F762F6A2F11241B
:103180009F5750409AF0F1F088234AF0EE0FFF1F4E
:10319000BB1F661F771F881F91505040A9F79E3FA5
:1031A000510580F00C94E9180C9434195F3FE4F356
:1031B000983ED4F3869577956795B795F795E795FB
:1031C0009F5FC1F7FE2B880F911D9695879597F904
:1031D000089597F99F6780E870E060E008959FEF99
:1031E00080EC089500240A9416161706180609069E
:1031F000089500240A94121613061406050608956D
:10320000092E0394000C11F4882352F0BB0F40F4F4
:10321000BF2B11F460FF04C06F5F7F4F8F4F9F4F34
:10322000089557FD9058440F551F59F05F3F71F0B6
:103230004795880F97FB991F61F09F3F79F087951D
:103240000895121613061406551FF2CF4695F1DFA6
:1032500008C0161617061806991FF1CF8695710536
:10326000610508940895E894BB2766277727CB016A
:1032700097F90895F999FECF92BD81BDF89A9927E3
:1032800080B50895262FF999FECF1FBA92BD81BD52
:1032900020BD0FB6F894FA9AF99A0FBE01960895D8
:1032A0000E949219A59F900DB49F900DA49F800D30
:1032B000911D112408952F923F924F925F926F9229
:1032C0007F928F929F92AF92BF92CF92DF92EF92B6
:1032D000FF920F931F93CF93DF93CDB7DEB7CA1B37
:1032E000DB0B0FB6F894DEBF0FBECDBF09942A8862
:1032F000398848885F846E847D848C849B84AA840A
:10330000B984C884DF80EE80FD800C811B81AA8196
:10331000B981CE0FD11D0FB6F894DEBF0FBECDBF61
:10332000ED010895A29FB001B39FC001A39F700D4E
:10333000811D1124911DB29F700D811D1124911DBD
:063340000895F894FFCF90
:10334600297C8643D2000108E63D013D0100004C80
:103356000580002B565A0100000000470AB009DF1D
:10336600098E0A100AEE09020A656D6F6E547820FE
:1033760056332E3420435553544F4D2044697363BE
:10338600726574652053616D706C696E67205600B6
:103396004F70656E456E657267794D6F6E69746FB5
:1033A600722E6F7267004C6F6164656420454550EC
:1033B600524F4D20524620636F6E666967203E006D
:1033C6004E6F20454550524F4D20636F6E666967BC
:1033D6000052464D3639435700204E6F64653A20F9
:1033E6000020467265713A20003433334D687A0006
:1033F6003836384D687A003931354D687A002047BD
:10340600726F75703A2000504F53542E2E2E2E2E6A
:10341600776169742031307300272B2B2B2720749A
:1034260068656E205B456E7465725D20666F7220FE
:10343600524620636F6E666967206D6F6465002B68
:103446002B2B0D0A00456E746572696E6720636FDB
:103456006E666967206D6F64652E2E2E006E616E36
:1034660000696E66006F766600536176696E672E38
:103476002E2E00446F6E652E204E657720636F6E8C
:1034860066696720736176656420746F20454550D0
:04349600524F4D0044
:00000001FF
